:020000041000EA
:1000000000B5324B212058609868022188439860DF
:10001000D860186158612E4B002199600221596106
:100020000121F02299502B49196001219960352056
:1000300000F044F80222904214D00621196600F024
:1000400034F8196E01211966002018661A6600F04E
:100050002CF8196E196E196E052000F02FF8012189
:100060000842F9D1002199601B49196000215960AB
:100070001A491B48016001219960EB211966A021F2
:10008000196600F012F800219960164914480160C1
:100090000121996001BC002800D000471248134993
:1000A000086003C880F30888084703B5996A0420EC
:1000B0000142FBD001200142F8D103BD02B5186610
:1000C0001866FFF7F2FF186E186E02BD00000240BE
:1000D000000000180000070000035F00212200005C
:1000E000F4000018222000A00001001008ED00E03C
:1000F00000000000000000000000000074B24E7A12
:1001000000200420F7010010C3010010C5010010F9
:10011000C1010010C1010010C1010010C101001097
:10012000C1010010C1010010C1010010C701001081
:10013000C1010010C1010010C9010010CB01001065
:10014000CD010010CD010010CD010010CD01001037
:10015000CD010010CD010010CD010010CD01001027
:10016000CD010010CD010010CD010010CD01001017
:10017000CD010010CD010010CD010010CD01001007
:10018000CD010010CD010010CD010010CD010010F7
:10019000CD010010CD010010CD010010CD010010E7
:1001A000CD010010CD010010CD010010CD010010D7
:1001B000CD010010CD010010CD010010CD010010C7
:1001C00000BE00BE00BE00BE00BE00BEEFF3058054
:1001D000103800BEF2EB8871C84A0010F44A0010D3
:1001E0003802001090A31AE71E481F49086006C88D
:1001F00081F3088810471D480068002801D019487D
:10020000F3E70DA40ECC002902D000F012F8F9E7B4
:100210001749184A002000E001C19142FCD116495B
:100220008847164988471649884700BEFDE701C937
:1002300001C29A42FBD37047F44A0010C00000206C
:1002400020040020544E0010000004200000042070
:10025000544E001000100420001004200000000084
:10026000704700000000000008ED00E0000000D032
:10027000200400203C090020453700102104001014
:1002800005370010F8B5C04606480749091A8B1013
:10029000C90FC91810B5491003D0044B002B00D06A
:1002A000984710BD2004002020040020000000001A
:1002B000054B10B5002B03D00449054800E000BFF2
:1002C000FFF7E2FF10BDC04600000000F00600206E
:1002D000843D001010B50400322001F0F5F8D02361
:1002E0001B065A680123A3401342F8D0322001F0C4
:1002F000EBF810BD10B50520FFF7ECFF054C2068AA
:1003000001300A2101F0EAFC2160034B01221A703E
:1003100010BDC046EC0600207803002010B5062072
:10032000FFF7D8FF054C206809300A2101F0D6FC00
:100330002160034B01221A7010BDC046EC0600205C
:100340007803002010B50B2000F0A0F90C2000F07D
:100350009DF90D2000F09AF9D0231B06802212018E
:100360005A62802252015A62802292015A6205200A
:1003700000F08CF900220121052000F087F80A4BDB
:1003800001220421052000F01DF9062000F07EF96D
:1003900000220121062000F079F8044B01220421FB
:1003A000062000F00FF910BDF50200101D0300102B
:1003B00070B5134B1C685D6801F06EF9001BA94114
:1003C000002903DC14D10F4B984211D90E4A13783F
:1003D00001214B40DBB21370002B0AD0D0231B0647
:1003E000802212015A6101F057F9054B18605960DB
:1003F00070BDD0231B06802212019A61F3E7C0462C
:10040000A0050020A08601003A09002010B50100D7
:10041000024B180003F0E8FA10BDC046883D0010FA
:1004200010B503F0ADFAFFF78DFF09E0084B18682F
:10043000FFF7ECFF074B00221A700A2001F044F886
:10044000FFF7B6FF034B1B78002BEFD1F5E7C04653
:10045000EC0600207803002010B58300084A9A18A3
:1004600014684022544080322240064CA446634423
:100470001A60C000044B9C466044416010BDC046F9
:1004800004C0014004D001400040014080000C4BFA
:100490009C46604400290ED00823002A0DD0042277
:1004A0001343026853400C221340802252019446A9
:1004B0006044036070470023EFE70022F0E7C04686
:1004C00004C0014070B50400D0231B061D680D4B0D
:1004D000AA00D358002B0AD0002803D0094BAD0046
:1004E000EC5070BD08490D2000F026FBF6E700280F
:1004F000F7D0044BAD00E850034900220D2000F076
:100500000FFAEEE7A8060020ED05001007230340D0
:100510009B00C00899403C308000014BC15070479F
:1005200000400140F8B507000D0016001C00FFF761
:10053000EDFFFB089B00E418072038408000854051
:10054000002E05D080239B019C4664442560F8BDA5
:10055000C0239B019C4664442560F8E770B5002ADF
:100560000FD0D0231B061C680F4BA500EB5820288A
:1005700010D40023DB0704D40C4BA400E358002B59
:100580000AD0D0231B061B68002B0BD0084BFFF7AB
:10059000C9FF70BDC340EDE7064B074A0748BE21BF
:1005A00003F0B4F8064BF2E718070020A806002075
:1005B00030410140143E001008470010CC3D0010AF
:1005C0000041014070B505000E0014001800FFF74F
:1005D00079FF220031002800FFF7C0FF002C00D176
:1005E00070BD01210D2000F05FF9F9E7F0B5D646A6
:1005F0004F464646C0B5D0231B061F681F4BBA00A6
:10060000D3589846002F03D01D4B9946002626E06C
:100610001C4B9946FAE7EB40DB0714D5240901355A
:10062000002C1BD033000833AB4217D90F231A001C
:10063000224092462342F1D0134BBA00D358202DCA
:10064000E9D40023E8E751462800FFF75FFF43465F
:10065000002BE3D051462800C047DFE708361D2EA7
:1006600006D8F30808339B004A469C583500D7E764
:10067000E0BCBA46B146A846F0BDC046A806002078
:1006800030410140004101401807002010B501230E
:100690008340D0221206936293610521FFF7DCFEAE
:1006A00010BD00000FB400B583B0084803F06DF929
:1006B000049B002B07D005A90191180003F074F9E1
:1006C000034803F062F9012003F01AF86C3E0010B1
:1006D0009C3D0010EFF3108072B6034B1B68002B9B
:1006E000FBD0BFF35F8F70472C0100D0BFF35F8F4B
:1006F000024B00221A6080F3108870472C0100D052
:10070000F8B506000C001500FFF7E4FFE308F71842
:10071000F15C07222240012393400B4205D1DBB25A
:100720000B433B70FFF7E2FFF8BD21002800FFF705
:10073000B9FF0000054A1078431CDBB21370172B79
:1007400002D9130010221A707047C04679030020A6
:10075000002307E0054A9A189200BFF35F8F00213B
:10076000116001331F2BF5D97047C046400000349B
:10077000074B9B68103080001950BFF35F8FBFF3A9
:100780005F8F044B0021196082F310887047C046C8
:1007900000ED00E0240100D00048704700E400E0D4
:1007A00010B5FFF7F9FF002302E0034A04C001334C
:1007B000072BFAD910BDC0468080808010B5038811
:1007C000DA0A1C2A05D15B055B1502335B00C018F1
:1007D00010BD034B034A10210348FF3102F096FF7E
:1007E0007C3E00106C470010943E001010B5091AB2
:1007F0000B1F0A4A88180A4A904208D8C90706D42B
:100800005B105B055B0D0748184380B210BD064BBB
:10081000064A02210648FF3102F078FFFC0700007B
:10082000FE0F000000E0FFFFD83E00106047001000
:10083000943E001010B5091A04394A08090B08D172
:100840004905490D064B0B430380064B1343438078
:1008500010BD054B054A0A210548FF3102F056FF3D
:1008600000F0FFFF00F8FFFF083F00103C470010BA
:10087000943E001001238340034A10681840431E31
:100880009841C0B27047C04600E100E0002A05D0A0
:10089000044BC0225200995019607047014A8023CE
:1008A000D150FAE700E100E010B50A001F23034031
:1008B000012199404009FFF7E9FF10BD024B9B68F9
:1008C00010308000C058704700ED00E070B50400A3
:1008D0000D00EFF3108672B60C4B1B68002BFBD09B
:1008E000BFF35F8F2000FFF7E9FF094B984201D06B
:1008F000A84205D1320029002000FFF739FF70BD62
:10090000044B054A0548E12102F000FF240100D014
:10091000CD010010183F001094470010943E0010C5
:10092000F0B5DE4657464E464546E0B589B08146AD
:1009300001911500EFF3108B72B66F4B1B68002B03
:10094000FBD0BFF35F8F6D4B00269E57002E40DB20
:100950007400A419A4006A4824180622A256674B02
:100960001A70684B9A684B4610339B00D3589846D0
:100970001B1A2F2B3BD9644B984531D105AF634BE4
:100980003B80634973009A46981980005C4B9846F7
:1009900040440230FFF72AFF78805E4BBB80FF2384
:1009A000BB71FD71019B0793330053449B0043448B
:1009B00007CF07C301231C43A0465A464146484679
:1009C000FFF7D6FE09B0F0BCBB46B246A946A0462A
:1009D000F0BD514B514A6E215148FF3102F096FE55
:1009E000504B4E4ABA214E48490002F08FFE012377
:1009F00042469A439246101A0C2101F097F90029B9
:100A00000FD153460027DA79AA4212D90621595646
:100A100000290DDB4A005218920039491F008B183B
:100A2000F1E7414B3D4A86213D48FF3102F06EFE21
:100A30001F00002F2ED005AB3C4A1A80813A5A8005
:100A40000623FB560293002B17DA394805AB9A466A
:100A50009880029A9A71DD71019A0792381D2100DF
:100A6000FFF7C4FEB880BE71254B72009219920048
:100A70009B18524613CA13C39FE7381DFFF79EFE0B
:100A800001007000801980001D4BC0180430FFF772
:100A9000ADFEDBE705AF1D4B3B801D4973000293A4
:100AA0009B199B00164A90461A0042440392901CE0
:100AB000FFF79CFE7880039A101D5146FFF796FEC3
:100AC000B8801C4B52464146521A524153431B0DAB
:100AD000BB71FD71019A0792029B9B199B004344D5
:100AE00007CF07C3114B52461380813B538001232C
:100AF0001C43A04661E7C046240100D0390900200C
:100B00007C03002000ED00E0CD01001000A1FFFFFC
:100B1000AC03002001BDFFFF503F00107C470010D8
:100B2000943E0010783F0010A03F001001480000E4
:100B300001BD0000AAAA0000F0B5CE46474680B528
:100B400083B006000D00EFF3108872B64F4B1B68A0
:100B5000002BFBD0BFF35F8F4D4B9A6834001034ED
:100B6000A300D7584B4B9F4207D0AF4200D18AE039
:100B70000197494BFB1A2F2B09D942463900300007
:100B8000FFF7F6FD03B0C0BCB946B046F0BD30007B
:100B9000FFF770FE814600213000FFF785FEBFF3AE
:100BA0005F8FEFF30581002901D08C4211D1012321
:100BB000019C9C430020A3689D4212D00622A256AD
:100BC000002A0DDB53009B189B00334A2000D418E9
:100BD000F1E7324B324AF4213248FF3102F096FD00
:100BE00020009D4249D106256557002D2BDB2A4B5D
:100BF0006A00521992009B189A68A260DA79E27131
:100C00009B795BB2A371002B0FDA2748A080224B9F
:100C10006A00521992009B18244A11789971157034
:100C200049463000FFF740FEA7E768004019800002
:100C3000194BC0180430FFF7C1FD0100231D180037
:100C4000FFF7D4FDE2E7002912D100280ED0FF23E0
:100C50008371174B838015490B78A3710E4A154B8E
:100C6000A41A644163431B0D0B70D9E7094FF2E7E7
:100C70001149201DFFF7DEFDD2E7104B084A094855
:100C80000F4902F043FD034F77E7C046240100D02F
:100C900000ED00E0CD0100107C0300202440001096
:100CA0004C470010943E001001BD0000390900209F
:100CB00001BDFFFFAAAA0000B603002058400010A3
:100CC00035020000F8B5012202432C4BD31A2F2B1A
:100CD00028D8EFF30583002B2AD0EFF3108472B6E7
:100CE000274909680029FBD0BFF35F8F234D2549B1
:100CF0000600761B76417143090D4DB22249896881
:100D00009B00C958914219D00021032930D81B4BB0
:100D10004A00521892009B189B795BB2AB421DD0DF
:100D20000131F2E7194B1A4A1A481B4902F0EEFC4E
:100D30001A4B174A17481A4902F0E8FC124A9268FF
:100D40001849D150184B1A7882711D70BFF35F8F0C
:100D50000B4B00221A6084F31088F8BD074B4A0041
:100D60005618B6009E19FF27B771104AB280E9E7FE
:100D70000F4B074A07480F4902F0C8FC7C030020CC
:100D8000240100D0AAAA000000ED00E0604000109D
:100D900020470010943E00106E02000088400010B2
:100DA00071020000CD0100103909002001BDFFFFD4
:100DB0009440001082020000024B9C46614489006E
:100DC000016070474000003410B50400FFF7B2FC2A
:100DD00001002000FFF7F0FFFF232371BFF35F8FB7
:100DE00010BD10B50400FFF7A5FC01002000FFF7BF
:100DF000E3FFFF23237100236371BFF35F8F10BDF7
:100E000010B50D4C09E00D4B0D4A0E481A2102F0A9
:100E10007DFC2000FFF7D8FF08340B4B9C4209D221
:100E20002368002BF5D0012BEDD12000FFF7D9FF6F
:100E30000834F2E710BDC046180400209C400010A2
:100E4000D4470010BC4000102004002000040843D8
:100E5000704700000A4B1968EFF3108372B60A68F6
:100E6000002AFCD0BFF35F8F054A1268BFF35F8F83
:100E70000021116083F3108840BF002000217047DB
:100E80002C090020F0B5DE4657464E464546E0B5F3
:100E900083B0EFF3058303221A400092B04B920017
:100EA000D35898461B78009A934207D10123009AA1
:100EB00093401A000193AB4B1A6015E1AA4BAB4A61
:100EC000AB48922102F022FC43465A694B465B0034
:100ED0004B44DB0093469B445B469E68DF68A54815
:100EE00000F0A8FB801BB941002900DA06E1002FC1
:100EF00060DB5B461C69A04B9C4245D04346082002
:100F0000185E5B46598889B2FFF7A0FF5B465969B6
:100F1000A04704000D0023002B434BD0002D3DDAE9
:100F200030003900001BA9415B469860D96000245D
:100F30001C5F002C00DAE1E043465A6992466300E8
:100F40001B19DB0053449A68DB6805000E00AD1ADC
:100F50009E41002E00DAD1E043461C814746083707
:100F6000BC46634600255D5F002D1DDB6C006419E7
:100F7000E4005444A268E36806000F00B61A9F41DB
:100F8000002F11DBA446ECE75B465C692369200077
:100F9000984700280ED065682468BCE7754800F0C3
:100FA00049FB00196941BFE75B461D804B4662461D
:100FB0001380A3E05B4600229B5E424613811269C8
:100FC000EFF3108372B611680029FCD0BFF35F8F76
:100FD00042460221525E59460A80424649465180A5
:100FE0001269BFF35F8F0021116083F3108885E0E1
:100FF00043461969EFF3108372B60A68002AFCD0E1
:10100000BFF35F8F4246928812B29146012252424C
:1010100041468A800A69BFF35F8F0021116083F324
:1010200010881AE09B465B4600229A5E002A0BDB82
:1010300053009B18DB0053449868D96826002F00A2
:10104000361A8F41002FEDDA4B4659460B80634626
:1010500000215B5E994663461A804B46002B53DBAA
:1010600043465A6992464B465B004B44DB009C4624
:10107000D44463469C68DD6846460836B346D2E7EA
:101080000023424693714146083143460820185ECA
:1010900011E001225242D317A260E36043460822C6
:1010A0009B5E834206D00D80434608229B5E2380D0
:1010B000434618812800431C2AD043465A694300FE
:1010C0001B18DB00D418D55E63881BB2002BE0DB55
:1010D0002100EFE76B1C2AD1264800F0ABFA241A56
:1010E0008D41002D34DC31D0224B019A5A634346A6
:1010F00008229B5E9946002B00DBE5E643469B8871
:101100001BB2002B00DB73E743469B79002BB7D162
:10111000434608229A5E002A1ADB43465969530067
:101120009B18DB00CB189C68DD68631CD2D011498A
:101130008A6AA01A009B04339B005B589B1A984252
:10114000CAD2009B04339B005C50C5E7002CCBD077
:1011500040BF03B0F0BCBB46B246A946A046F0BDB6
:10116000080700203C700540504100100048001066
:101170007C41001000400540850E001070B5040051
:101180000D0011000126AE4006622800FFF79EFB0D
:1011900001212800FFF788FB024B9C46644426602F
:1011A00070BDC04638200000F8B5CE46474680B531
:1011B0000600894690461F00C160FFF7BBFA154B39
:1011C0009C4660448000306143463370BBB27381FB
:1011D000D022120612787270012252423281B280FD
:1011E0009B187380002406E0621E736965002D1948
:1011F000ED005A530134BC42F6D3074B42469200ED
:10120000D650064A41464846FFF7B8FFC0BCB9462B
:10121000B046F8BD4000003408070020850E0010DD
:1012200010B5064B1B69002B01D0044810BD044BC0
:10123000044A0548652102F069FAC046C40300204B
:10124000BC410010E84700107C410010F8B50400D4
:101250000569EFF3108072B629680029FCD0BFF34E
:101260005F8F0221665E656971008919C9006D187A
:10127000002E02DB0027E95F61802169BFF35F8FE9
:1012800000270F6080F31088002E2CDB069929615F
:1012900007996961AA60EB606B8801335B04590CA4
:1012A000002B00D1012169803000FFF7CFFD2169BB
:1012B000EFF3108372B60A68002AFCD0BFF35F8F89
:1012C000A2882A80A6802269BFF35F8F0021116067
:1012D00083F31088E368217801228A4003498C4611
:1012E00063441A60F8BD01204042FBE73C20000047
:1012F00070B582B0060014001D0008AB1B78002BEF
:1013000007D100F0C9F922002B00121A8B41002BE3
:101310000ADB079B0193069B009322002B00300001
:10132000FFF794FF02B070BD0020FBE7F0B5C646A2
:1013300000B584B00500884616001F000AAB1C7873
:10134000FFF76EFF0294019700962A004346FFF7CD
:10135000CFFF04B080BCB846F0BD000030B503003C
:1013600008145A8990422EDA5C6942001218D200A1
:10137000A2181D69EFF3108472B628680028FCD00B
:10138000BFF35F8F508880B20904090C884212D0E5
:1013900000201A69BFF35F8F0021116084F3108869
:1013A000002811D0DA681B7801319940074B9C4620
:1013B0006244116008E00649014389B2518001226C
:1013C0009A710120E5E7002030BDC0463C200000B6
:1013D0000080FFFF10B50400FFF722FF2100FFF798
:1013E000BDFF10BDF0B583B006000F00EFF305831D
:1013F000002B1AD106246442E517A4197D418D42C1
:1014000002D803D1844201D90024002500F044F918
:1014100022002B00121A8B41002B0BDC08D030006D
:10142000390000F04BF903B0F0BD1A48FFF73AF964
:10143000002AF4D0184A0023009320002900FFF767
:1014400075FF002818DAEAE7002300E00023002BEC
:10145000E5D1124B1968EFF3108372B60A68002ABF
:10146000FCD0BFF35F8F0D4A1268BFF35F8F00217E
:10147000116083F3108820BF094B5B6A9D42E5D859
:101480000749896AA14203D29D42DDD00123DEE7EC
:101490000123DCE7E0410010550E00102C0900206C
:1014A0000040054070B504000D0000F0F5F800198B
:1014B0006941002902DBFFF795FF70BD0120404222
:1014C0000049F8E7FFFFFF7F10B5FA2292000023E2
:1014D000002100F0C1FFFFF7E5FF10BD70B582B03D
:1014E00005000C00EFF30583002B12D03A4B5B6A2A
:1014F0008B4209D3384A926A824208D28B4201D089
:10150000012002E0002000E0002002B070BD0120B8
:10151000FBE7FFF785FEC16803788A6A2E00A81AE8
:1015200004339B005B589B1A984212D320BF2A4B6E
:101530005B6A9C4209D8284A926A954207D99C4224
:1015400001D00120E1E70020DFE70020DDE70120F6
:10155000DBE7224A0023009328002100FFF7E6FE84
:1015600000280BDD1C4B5B6A9C421BD81A4A926A0E
:10157000954229D99C4213D0012314E0164B5B6A93
:101580009C4209D8144A926A954207D99C4201D0DC
:101590000120BAE70020B8E70020B6E70120B4E751
:1015A000002300E00023002B00D120BFFFF712FF33
:1015B000094B5B6A9C420BD8074A926A964209D94A
:1015C0009C4203D00120A0E70123ECE700209CE728
:1015D00000209AE7012098E700400540550E0010D2
:1015E000004870470040054010B50B4B1B69002BAD
:1015F00004D00A480A21FFF7DFFB10BDFFF7F0FF18
:101600000400032100F00CF80348102303222100FA
:10161000FFF7CAFDEDE7C046C40300202C090020F7
:1016200010B5024A0248FFF76BF810BD30420010B7
:10163000B80600200200436A906A1900536A994272
:10164000FAD17047416A00E0416A9942FCD300E058
:10165000416A994202D1816A9142F9D37047F0B54B
:10166000C64600B5804614001D00FFF7E3FF0600E4
:101670000F0022002B0092197B41994202D804D11D
:10168000904202D901225242D3174046FFF7DAFFB7
:1016900080BCB846F0BD000010B50248FFF7CAFF95
:1016A00010BDC0460040054010B502000B000248C6
:1016B000FFF7D5FF10BDC0460040054010B5020041
:1016C0000B000248FFF7BEFF10BDC04600400540BA
:1016D000074B98420AD0162301229A40054B1A6004
:1016E000054B1B6811009943FAD170471723F3E7A4
:1016F0000080034000F0004008C0004070B5046B5B
:10170000E30701D4200070BD0B4BC3180B4A1A60CD
:10171000456A836AAD01ED18AD02062000F016F9A6
:10172000074900F003FB0100280000F0FFFA002148
:10173000FFF7BAFFE6E7C0463030000001030000C3
:101740004E0E000070B504000E001500FFF7D6FF26
:10175000E36A5E403540024BE3181D60206370BDB4
:101760002C10000070B505000C00062000F0EEF80B
:10177000C000210000F0DAFA0130C60907D00E4B94
:101780009E4215D8400834003F26064000E0012460
:101790006C62AE62002200212800FFF7D3FF062012
:1017A00000F0D4F88000A101891900F0BFFA70BDE3
:1017B0000026024CECE7C046FEFF0000FFFF0000E1
:1017C000002909D00A22064B9C46604443425841F6
:1017D000044B4000C252704780225200F3E7C046DB
:1017E0000080FCBF3009002070B504000D00062009
:1017F00000F0ACF800281ED0104B9C421CD01622E2
:10180000012393400E4A13602000FFF761FF00217F
:101810002000FFF7D5FF29002000FFF7A3FFE26AB1
:1018200070235A400E331340064AA2181360064B29
:1018300023630323A36470BD1722E1E70080034004
:1018400000E000402C10000001030000F8B5D6466F
:10185000474680B506000D0017009846440024183E
:10186000A400294B9C4664446368089A934200D2C2
:101870006260331FDBB29A46012B2ED980221201FF
:10188000C0239B01E3181A60204BB200D1580029F5
:1018900007D0586900F04AFA013043001B18033B97
:1018A000FDD27F0123685F40E0233B40802252014C
:1018B000A21813605346012B1AD980239B01E31809
:1018C000802212011A60089B6360104BB6004246EA
:1018D000F250C0BCBA46B046F8BD012DCED10322AD
:1018E000C0239B01E3181A60A368DB07FCD5D8E787
:1018F0002168694003230B401360A3680122AA40BA
:101900001A42FAD0D9E7C04600800040BC06002049
:10191000F0B583B005000E0017001800089900F01C
:1019200005FA0300089A140200943A0031002800D6
:10193000FFF78CFF03B0F0BD10B582B080246400C7
:101940000094FFF783FF02B010BD0000014B800040
:10195000C0587047BC060020F0B5C64600B504006C
:101960000E0017001D00374800F0E0F98046364BA6
:10197000FA18364B9A4239D80100380000F0D6F9EF
:101980000200103A98235B009A4235D86B1E062B52
:1019900038D8069B013B062B34D83F09474537D33F
:1019A0002D04069B1B031D432368002B36DB284BAD
:1019B0009C4244D00C2201239340264A1360264ABD
:1019C0001360264A1268190091430A1EF9D1266055
:1019D000A060234BE31821321A602268002AFCDA47
:1019E000E56008221A6080BCB846F0BD1D4B1E4A57
:1019F0001E48112101F08AFE1D4B1B4A1B4819216C
:101A000001F084FE1B4B184A18481C2101F07EFE91
:101A1000194B154A1548232101F078FE22683F230F
:101A20001340B342C3D1A3681B051B0D8342BED133
:101A3000E368EE22D2021340AB42B8D1D3E70D22C5
:101A4000B9E7C046001BB70080E84BD380F8A93245
:101A500000C0024000E0004000F0004008C000402C
:101A6000043000005442001018480010A442001036
:101A7000E8420010044300105043001080239B00F4
:101A80000B43014AD36270470080054010B5010046
:101A900018231B8814221088984710BD10B5010028
:101AA00018231B8816221088984710BDF0B5C6462B
:101AB00000B507000E0000250123984600E001351F
:101AC000B5420AD2AC003C192068FFF7DFFF206066
:101AD0000028F4D100239846F1E7404680BCB84680
:101AE000F0BD0000064BAA2212011A602F22DA6014
:101AF000044B054A1A60024B5B68002BFBDA704707
:101B0000004002400060024000B0FA0010B504003E
:101B100001E008CC9847024B9C42FAD310BDC04666
:101B20007C3D00107047000010B50248FFF7EEFF43
:101B300010BDC046403D0010054B064A1A60064BDA
:101B4000064A1A60064B1A68044B9343FAD1704751
:101B500000E00040BFCDFBFE00F00040FE7F3C00F7
:101B600008C00040044BDB6C002B03D1034B8022E8
:101B7000D2021A607047C046000011504C2011502C
:101B8000044B054A1A60054B1B68DB43DB01FAD1A5
:101B90007047C04600F00040FFFFFF0108C0004052
:101BA000034B40229A675A671A67DA667047C04645
:101BB00000F0014010B5FEF7CBFD10BD70B5044D2F
:101BC000A968044CC022200000F0B8FCAC6070BDD5
:101BD00000ED00E00000002070B50420FFF7B6FE25
:101BE000064900F0A3F805000024002C00DD70BDBC
:101BF000E0B22900FFF742FF0134F6E740420F0050
:101C000030B583B0274B00229A67FFF76BFF264B56
:101C100001221A60234B5B6C012BFBD1234B032267
:101C20001A60204B9B6B012BFBD1013300930433D3
:101C30001F4A01211F48FFF78FFE052300931E4A0C
:101C400001211E48FFF788FE1D4B002202210420BF
:101C5000FFF772FE1B4D2B00002201210520FFF72C
:101C60006BFE194C2300002200210720FFF764FEC1
:101C70002300002200210820FFF75EFE8023DB0006
:101C800000932300002200210920FFF741FE2B00D2
:101C9000002200210620FFF74FFEFFF79DFF03B053
:101CA00030BDC046008000403CB0004030B0004035
:101CB000002F685900800240008C864700C0024017
:101CC000001BB70040597307006CDC020148042177
:101CD000014B1847E0030020AD1A0010124A936F21
:101CE0009B0815D29066D166002905D0FFE7FFE773
:101CF000FFE7516F106F704704B580210906C217C6
:101D00005140002800D0C84302F00AF8002104BD69
:101D1000F0B5146E556E576F166FFFF7E3FF14663C
:101D2000556657671667F0BD000000D0114A936FE3
:101D30009B0813D210665166002905D0FFE7FFE724
:101D4000FFE7516F106F704704B5002801D00020E5
:101D5000C04301F0E5FF002104BDC046F0B5146E9C
:101D6000556E576F166FFFF7E5FF14665566576798
:101D70001667F0BD000000D094464A4A926F920860
:101D8000624601D228E0C046F0B5464E346E756E0C
:101D9000776F366F00F020F89446424A1466556615
:101DA000576716676246F0BD94463E4A926F9208A6
:101DB000624601D254E0C046F0B53A4E346E756EBC
:101DC000776F366F00F04CF89446364A14665566C5
:101DD000576716676246F0BD002B24DB11D000293F
:101DE0003EDA00B5C943404200D1013100F038F875
:101DF000C943404200D10131DB43524200D101339B
:101E000000BD002AEBD1002801D1002905D0002017
:101E1000C90FC90701D1C043410800B501F078FFDF
:101E20000022002300BD00B500290ADBDB4352423B
:101E300000D1013300F014F8C943404200D1013110
:101E400000BDC943404200D10131DB43524200D1C1
:101E5000013300F005F8DB43524200D1013300BDED
:101E6000002923D1002B18D1002A0CD0BC460D4FDD
:101E700038667A6600210023FFE7FFE7FFE77A6F05
:101E8000386F67467047002801D00748010000B549
:101E900001F03EFF0022002300BD02000B000020E5
:101EA00000217047000000D0FFFFFFFF002B00D093
:101EB000BFE0130C28D1002AE7D080B4114F396657
:101EC0007A66FFE7FFE730B4040C7B6F396F1B04C1
:101ED00023433B667A66FFE7FFE7FFE7C04684B22D
:101EE0007B6F3D6F1B0423433B667A66FFE7FFE78A
:101EF000C04600232C042D0C7A6F386F00196941FD
:101F0000B0BC7047000000D0F0B594460025140E18
:101F100001D112020835140F01D112010435940FBA
:101F200001D192000235D40F01D152000135D40BFA
:101F30000134254F7C66254C3C660E0C93B2FFE7BE
:101F4000FFE7FFE73C6F6643360C7703BE467343FB
:101F5000DF0B5B04C01AB941130C7343DB18C91AB9
:101F6000CE086643360CB64493B273431F0F1B0171
:101F7000C01AB941130C73431F0B1B05C01AB9419A
:101F8000860D8F023E436643360C092D24DB520A30
:101F90007243801A7703460A6643360C16235B1B8E
:101FA000DE40DF40BF1964466643821B704604353D
:101FB00006330100D940A840C01900D30131A24224
:101FC00006D20023F0BD0000000000D0FFFFFFFF9D
:101FD000121B0130F3D3F1E709277F1BFE40644653
:101FE000A2B27243801A00D20139220C7243130C40
:101FF0001204821A99410B00704604351337010010
:10200000F940A840801900D30131002B02D1A2422F
:102010000AD2F0BD013000D30131121BFAD2013BCC
:10202000F8D1A24200D2F0BD013000D30131121B21
:10203000F7E7F0B51C0C00D080E00CB400251C0ABA
:1020400004D11B02160E3343120208351C0B04D1B7
:102050001B01160F3343120104359C0B04D19B0066
:10206000960F334392000235DC0B02D192185B418C
:1020700001351C00971864410134464F7C66464C7C
:102080003C660E0CFFE7FFE7FFE7C0463C6F664388
:10209000360C7703BE4697B27743C01B00D2013996
:1020A000C01B00D201399FB27743C91BC91B170C53
:1020B00077437E04FF0B801BB941CE086643360C84
:1020C0000C2D33DBB644120B1F053A431B0B97B2A2
:1020D0007743C01B00D201399FB27743C91B170C4D
:1020E00077433E043F0C801BB941860D8F023E436F
:1020F000664329277F1BFE400C3D7746AF40BF1942
:1021000030BCA2B2ABB272437343801A9941220C25
:102110007243130C1204801A994102000B0001371C
:10212000001BA941F9D2781E0021F0BD0C277F1BAE
:10213000FE4077467F0BAF40FF19E0E700245D1CAF
:1021400007D0144F7D663966FFE7FFE7FFE7FFE73B
:102150003C6F95B29EB265436643401BB141150C7E
:102160001E0C6543664336042F0C3E432D04401B72
:10217000B141994204D202000B0020000021F0BDC1
:1021800001D19042F7D3801A994101349942F2D398
:10219000F6E70000000000D0FFFFFFFF484041408D
:1021A000484018B4134B5B68019308BD18B4114B39
:1021B0001B68019308BD94460F4A926F920805D29E
:1021C000624618B40B4BDB68019308BD0A4AF0B5B0
:1021D000146E556E576F166F6246FFF7F2FF064A90
:1021E0001466556657671667F0BD18B4014B9B68B7
:1021F000019308BD28070020000000D0FFB5504023
:102200004240504059404B40594000E0FFB5154F07
:102210004C00640D03D0BC4204D10C0314D8002040
:10222000090D09055C00640D03D0BC4204D11C03F8
:102230000AD800221B0D1B0501264B4009D44B4038
:1022400003D58B4200D18242FFBD9942FCD190421E
:10225000FFBD0B43DB1803431343F5D0C9434918B3
:10226000FFBD0000FF07000000B5FFF7CFFF804172
:1022700000BDC04600B5FFF7C9FF01D9002000BD71
:10228000012000BD00B5FFF7B9FF01D9002000BD56
:10229000012000BD00B5FFF7B1FF804100BD012066
:1022A00040054A00121804D85A00121801D800201C
:1022B00070470120704700000021002805D17047B9
:1022C000C1174840401AFAD0C90713B5064B1B681E
:1022D00098470CBC441CA2401005120B0349091B73
:1022E00009051943114310BD280800201F040000F0
:1022F00010B54C00620D8023D218DB00D21A5B05AA
:102300007E2A10DD9E3A13DACC17090349081943D7
:102310005242D140640001341532202A05DAD040FF
:102320000843604310BD002010BD0846604310BD47
:10233000C80FC018013810BD18B4024B5B6A019376
:1023400008BD00002807002010B50148FEF7AAF9D3
:102350006C43001070B513231C78012C12D0012C93
:1023600012DC214B214A93642148FFF78FFB214B5C
:10237000186070BD20491D4A9800815001331F2B01
:10238000F8D9ECE70023FAE71C48FFF787FB0500C4
:102390001B48FFF783FB023803789B007F2B09DD86
:1023A00012488022290000F0C9F8022C08D0022C23
:1023B000DADCD6E7134B144A1448332101F0A6F9AE
:1023C000134B1A88B5231B029A4209D1114B1A8864
:1023D000114B9A4204D1114B1A88114B9A42E6D004
:1023E0000020FEF75FF9C0462524001028070020D2
:1023F0004C330000280800204923001053440000FB
:10240000534600008443001024480010C8430010C5
:1024100054380000D8380000494600009C380000BD
:102420005946000007B56046002800D100BE01886B
:102430000A0A0230DF2AFAD1C9B2820804D302881C
:1024400040880004104300E00068024A50500390A6
:1024500007BD00002807002051434343C9188C469C
:10246000110C83B24B4310B4040C614392B280B29E
:10247000504362431C041B0C001910BC5941130447
:10248000120CC018514161447047000010B501485A
:10249000FEF708F91045001070B513231E78184890
:1024A000FFF7FCFA0500012E11D0012E09DDAB1E4D
:1024B0001B789B007F2B1DDD12488022290000F035
:1024C0003DF81148FFF7E2FA104B186070BD0D4857
:1024D0005422290000F032F8002300E001331F2BC2
:1024E000E3D8084A9C00A258002AF7D10849054AB7
:1024F000A150F3E7074B084A0848422101F006F9CA
:10250000534600002C0800204C330000280800200F
:102510008D2400102044001038480010544400104E
:1025200001480421014B1847F0030020AD1A0010A8
:10253000014B1B6818470000F0030020014B5B684B
:1025400018470000F0030020704710B5002802D0A3
:102550000B684968984710BD0100002007E0830020
:102560001B185B00501C08601078C01830380A68CF
:102570001378303BDBB2092BF1D97047F0B5DE465A
:1025800057464E464546E0B583B093461F000C9B28
:102590009A460D9C0E9B99460F9B9B0703D0B8460D
:1025A0000F00060022E00192A34688464E46B94637
:1025B0000700B44207D2551C4B4641462020B8477D
:1025C00001342A00F5E73D004F465C46019B9B46DF
:1025D000B1464646B84637002E0007E0013C551C80
:1025E0005346185D43463900B0472A00002CF5D108
:1025F00035003E0047460F9B9B0707D4100003B0F1
:10260000F0BCBB46B246A946A046F0BDB0464E4619
:10261000B9462F005D46531BB342EFD2541C4B46C4
:1026200041462020B8472200F5E7F0B5CE464746A0
:1026300080B585B0944698460C9D0D9C0EAB1B78DA
:102640009946109A119B129EB7071CD4002B0CD0F0
:10265000F7070AD54F46002F02D10C37374204D076
:10266000013B02E030272F550134944201D21F2C48
:10267000F8D9F70707D59C4205D21F2C03D830277D
:102680002F550134F5E7F70612D5770505D4002C50
:1026900003D0944221D09C421FD00F9A102A32D0EE
:1026A0000F9A022A37D01F2C0AD830222A5501341B
:1026B0001F2C05D84A46002A33D02D222A55013432
:1026C000039602930194009543466246FFF756FF36
:1026D00005B0C0BCB946B046F0BD621E012C10D09A
:1026E0000F9F102F0BD014000F9A102AD8D1B206CA
:1026F000D6D51F2CD4D858222A550134D3E7023C12
:10270000CBE71400C9E7B206EED41F2CECD8782230
:102710002A550134C7E71F2CD2D860322A5501341C
:10272000C1E7720703D52B222A550134C8E73207C7
:10273000C6D520222A550134C2E7F0B5DE465746F9
:102740004E464546E0B593B081468A4608920993C5
:102750001CAB10CB1B789B461E9D219B9846002CE2
:1027600003D1102342469A4390468023DB0046461D
:102770001E4042461A4212D0002C22D000260EE003
:102780003033D9B2771C0AAB995529002000FFF7E6
:10279000CDFAAC4216D31F2F14D83E0004002900F6
:1027A0002000FFF7C3FACBB2092BE9D942469206C3
:1027B00005D54121C918C9B20A39C9B2E2E7612178
:1027C000F8E7270043460693209B05931F9B04933D
:1027D00003955B46029301970AAB0093099B089A05
:1027E00051464846FFF721FF13B0F0BCBB46B24646
:1027F000A946A046F0BDF0B5DE4657464E464546D2
:10280000E0B597B00A900B910C929A46209B99469E
:10281000219F22AA13789B46249B0993259C289BE1
:1028200098464A463A4302D1103293439846802252
:10283000D20045461540434613420AD04A463A4321
:1028400041D000252E0053460D934D46099B9A46D4
:102850001BE02E0053460D934D46099B9A4614E00B
:102860003033DAB2731C99460EAB9A5552462300A8
:1028700028003900FFF798FABC4226D819D04B46F9
:102880001F2B1CD84E4605000F005246230028007F
:102890003900FFF789FAD3B2092BE1D942469206F3
:1028A00005D54122D218D2B20A3AD2B2DAE7612271
:1028B000F8E7AA45E3D94E460D9B9A4608E04E46F6
:1028C0000D9B9A4604E0002602E04E460D9B9A4678
:1028D00043460693279B0593269B0493099B0393EA
:1028E0005B46029301960EAB009353460C9A0B99EC
:1028F0000A98FFF79AFE17B0F0BCBB46B246A9464D
:10290000A046F0BDF0B5DE4657464E464546E0B51A
:1029100091B0804689460C929A461A9C1B9D2200D3
:102920002B0020002900FFF7BAFC002800D0ECE0C3
:1029300001225242D44B20002900FFF7ABFC0028B3
:1029400000D0E2E001225242D04B20002900FFF7E4
:102950008BFC002800D0D8E00022002320002900B2
:10296000FFF782FC002800D0E4E00694079580235E
:10297000DB001E9A1A400D921E9A1A4201D10623BC
:102980001C930698079902000B0008920993030014
:102990000A00024300D1D9E0080D4005400DBC4EAD
:1029A000B44660440A03120B1E00BA4B13431F00C7
:1029B000FFF786FCB84AB94BFFF717FCB84AB94B8A
:1029C000FFF7F4FB089009910022B74B3000390063
:1029D000FFF7E7FBB54AB64BFFF707FC02000B0019
:1029E00008980999FFF7E2FBFFF782FC8346FFF79F
:1029F00067FC06000F00AF4AAF4BFFF7F6FB002263
:102A0000AE4BFFF7D3FBFFF773FC0890AC4AAD4B1E
:102A100030003900FFF7E9FB06000F000898FFF7C8
:102A20004FFCA94AA94BFFF7E0FB02000B00300066
:102A30003900FFF7B6FB06000F0002000B00FFF79E
:102A4000D4FB0A900B91089BA14A94466344002151
:102A50000022089109921B05099300230893320074
:102A60003B0030003900FFF7A1FB0E900F913200C0
:102A70003B0000208021C905FFF793FB06000F00F3
:102A80000022944B0A980B99FFF795FB0022924B7A
:102A9000FFF78CFB02000B000A980B99FFF78BFBEA
:102AA00000228E4BFFF782FB02000B000A980B9965
:102AB000FFF781FB02000B0030003900FFF776FBC7
:102AC00002000B000E980F99FFF775FB0022714B67
:102AD000FFF76CFB089A099BFFF787FB06000F00C6
:102AE00008960997069A079BFFF7D4FB00282FD07A
:102AF00001235B429C46E3440022774B30003900BF
:102B0000FFF759FB0890099122E01E9B04931D9B3F
:102B100003931C9B02930094019553460C9A4946DB
:102B2000404600F0FFF811B0F0BCBB46B246A946E3
:102B3000A046F0BD00210022069107920694802352
:102B40001B069C46AC446346079310E700239B4654
:102B50005B466333C62B20D804261E9B1B0528D555
:102B6000089A099B190011430FD05D4A5D4B0698E6
:102B70000799FFF787FB00287AD000225A4B069866
:102B80000799FFF771FB002872D01C9B5B4506DD9F
:102B90005A469B1A013B1C9303E00526DDE7002300
:102BA0001C938023DB001E9A1A431E9200260023EA
:102BB0009B461D9B9E4265D29F1B02231E9A1A4074
:102BC0000A921E9A134202D0002E00D000275B46C4
:102BD000002B07D0089A099B06980799FFF7EBFA94
:102BE000069007910022002320002900FFF73CFBFC
:102BF000002800D07CE03D4B1E9A134004930397BD
:102C00001C9B0293069B079C0093019453460C9ACD
:102C10004946404600F086F8002E00D183E71E9B0F
:102C20009B0671D54525441C5346020049462800A1
:102C3000C0475A46D317D2185A4005230593013E80
:102C40000496002303930A3302935B46DB0F019340
:102C500000925346220049464046FFF76EFD0A9B0C
:102C6000002B00D15FE7020047460C9E1D9D53E0FC
:102C70001C9B002B9DD00D9B002B9AD01C9B013BD5
:102C80001C9396E7002798E7FFFFEF7FFFFFEFFF1A
:102C900001FCFFFF0000F03FFB799F501344D33F3E
:102CA000B3C8608B288AC63F0000F83F61436F635A
:102CB000A787D23F71A379094F930A400000E03FF4
:102CC0001655B5BBB16B0240EF39FAFE422EE63F16
:102CD000FF03000000002C400000244000001840CA
:102CE0002D431CEBE2361A3F80842E41FFF7FFFF95
:102CF000069C079D2200290080200006844661442E
:102D00000B000692079376E765258CE7541C534623
:102D100049462020B8472200931BAB42F6D310004F
:102D200001E7C046F0B5DE4657464E464546E0B59B
:102D300095B00690079193469946209F1E9A1F9B37
:102D400010001900FFF7ABFA002831D101225242DE
:102D5000BF4B1E981F99FFF787FA002837D1012231
:102D60005242BC4B1E981F99FFF794FA00283DD1A0
:102D70000022B94B1E981F99FFF78CFA002850D1FA
:102D80000022B64B1E981F99FFF76EFA002848D113
:102D9000002200231E981F99FFF766FA002850D1E1
:102DA00000239846229B5B0500D4B6E0002458E03F
:102DB000229B0393219B029303230193A84B00932F
:102DC0004B465A4607990698FFF7D8FB0EE1229B1F
:102DD0000393219B029304230193A24B00934B4640
:102DE0005A4607990698FFF7C9FBFFE00423229A89
:102DF0001A4022990B4210D09B4B002A0FD004227C
:102E00002299039121990291019200934B465A46CF
:102E100007990698FFF7B2FBE8E0944BEDE7032231
:102E2000EEE7229B0493219B039302971E9B1F9C1A
:102E3000009301944B465A4607990698FFF762FDA6
:102E4000D4E01E9A1F9B00200021FFF7AAF91E90D4
:102E50001F9101239846A5E70CAB30221A55013F7C
:102E600001341F2C01D8092FF6D81E981F99FFF79F
:102E70003FFA0500FFF724FA02000B001E981F9985
:102E8000FFF78FF97A4BFA009B181A685B680A9271
:102E90000B93FFF7AAF908900991FFF74DFA060086
:102EA000FFF70AFA02000B0008980999FFF779F971
:102EB0000890099100226F4BFFF7ECF900282ED003
:102EC00001363000FFF7F8F902000B000A980B9961
:102ED000FFF7D0F9002801D001350026002F2CD1B2
:102EE0002800FFF7EDF902000B001E981F99FFF76D
:102EF00058F906000F0000225E4BFFF7B5F90028D5
:102F000046D100225B4B30003900FFF7C3F900289F
:102F10003ED1EB073CD501353AE0062746E70022D3
:102F2000544B08980999FFF79FF90028D6D1002E35
:102F300001D0F307D2D50136D0E7AA461F2C11D80D
:102F4000013F0A213000FEF7F1FE651C30310CAB69
:102F500019550A213000FEF7E9FE092E0ED90600A8
:102F60002C00EBE755461F2C0CD87B1E002F09D0F8
:102F70000CAA302111551F000134F4E72B005546EF
:102F80001C00F0E71F2C03D80CAB2E221A5501347D
:102F90001F2C10D80A212800FEF7A0FE661C303135
:102FA0000CAB19550A212800FEF798FE051E01D02A
:102FB0003400EDE734000323229A1340012B1CD088
:102FC0001F2C06D84346002B32D00CAB2D221A55AD
:102FD0000134229B0393219B029301940CAB009339
:102FE0004B465A4607990698FFF7C8FA15B0F0BC49
:102FF000BB46B246A946A046F0BD219B002B13D08C
:103000004346002B02D10C3313420FD0219B013BCE
:103010002193190003E00CAB30221A5501348C4285
:10302000CED21F2CF7D9CBE72199F8E72199F6E703
:10303000229B5B0704D50CAB2B221A550134C8E741
:10304000229B1B07C5D50CAB20221A550134C0E7C3
:10305000FFFFEFFFFFFFEF7F65CDCD4165CDCDC118
:10306000F8440010FC440010EC440010F44400103C
:10307000484A00100000E03FF0B5DE4657464E4695
:103080004546E0B593B082468846934611930029A1
:1030900000D10DE300255646119B1878002800D179
:1030A00009E3252809D06C1C5B462A004146B0473D
:1030B000119B013311932500EEE701331193002793
:1030C00020E001231F4301321192012418E0022362
:1030D0001F4301321192012412E004231F430132E5
:1030E000119201240CE008231F43013211920124A4
:1030F00006E010231F4301321192012400E0002456
:10310000002C09D0119A1378203BD9B21029F6D897
:103110008B00C849CB589F46119B1A781300303B4F
:10312000DBB2092B10D92A2A13D00B94119B1A78E1
:103130002E2A1ED0119A1378683BD9B2122959D879
:103140008B00BD49CB589F4611A8FFF705FA0B909D
:10315000ECE71C9B1A1D1C921B68002B04DB0B93D5
:10316000119B01331193E1E7022217435B420B935A
:10317000F6E78022D20017435A1C11925A781300A6
:10318000303BDBB2092B0BD92A2AD3D11C9B1A1D49
:103190001C921C68002C08DB119B01331193C9E7BA
:1031A00011A8FFF7D9F90400C4E70024F4E780234D
:1031B0005B003B43511C119151786C2901D01F00D9
:1031C00018E0C0239B001F430232119212E08023BB
:1031D0003B43511C11915178682901D01F0009E02F
:1031E000C0231F430232119204E080235B001F437F
:1031F00001321192119B1878672818D8252800D21F
:103200004CE20300253BDAB2422A00D946E29300A1
:103210008A4AD3589F4680239B001F430132119254
:10322000E8E780235B001F4301321192E2E7782830
:1032300000D933E2692800D230E20200693AD2B202
:10324000012393407E4A134211D11A0600D500E2B1
:103250005B0500D422E21C9B1A1D1C921B689A4637
:10326000002C00D0B2E10122524253468EE16F2879
:103270000ED006D858283DD0622804D102239C469F
:1032800008E0782839D010239F43063B9C4601E094
:1032900008239C46582833D0692803D0642801D0DD
:1032A0000C2297437A0501D50122974369282AD039
:1032B000642828D0BA0500D59FE0FA0500D5C1E002
:1032C0007A0600D4D3E01C9A111D1C911168FF22CC
:1032D0000A4005970B9B04930394634602930023D3
:1032E000019300925B462A0041463000FFF725FA21
:1032F000050027E010239C46CCE710239C46C9E735
:1033000020221743C8E7BA0520D4FA0550D47A061C
:1033100066D51C9A111D1C911168FF220A40D01716
:103320001118414005970B9B049303946346029345
:10333000D20F019200915B462A0041463000FFF710
:10334000FCF90500119B01331193A5E61C9A073285
:1033500007218A43110008311C911168536899466E
:10336000DB170C930D930C9A0D9B100048400E90A8
:103370004A4653400F930E980F990C9A0D9B801A52
:1033800099410E900F9108970B9B07930694634603
:103390000493002305934B46DA0F029200900191AB
:1033A0005B462A0041463000FFF725FA0500C9E7D1
:1033B0001C9A111D1C911268D017111841400597D5
:1033C0000B9B0493039463460293D20F01920091E6
:1033D0005B462A0041463000FFF7AFF90500B1E730
:1033E0003A0605D51C9A111D1C910023D25E96E762
:1033F0001C9A111D1C91126891E71C9A0732072133
:103400008A43110008311C9108970B9B079306947F
:103410006346049300230593029353681268009255
:1034200001935B462A0041463000FFF7E4F90500AE
:1034300088E7C046AC480010F04800103C49001036
:10344000419000001C9A111D1C9105970B9B049341
:1034500003946346029300230193136800935B4631
:103460002A0041463000FFF768F905006AE73A068E
:1034700006D51C9A111D1C9112681204120C28E723
:103480001C9A111D1C91126823E7462819D01C9B19
:103490000733072293431A0008321C9204970B9AB1
:1034A000039202941A685B68009201935B462A00BB
:1034B00041463000FFF736FC0500119B01331193A4
:1034C000EAE520231F43E2E7672801D0472802D11D
:1034D00080231B011F43452801D0472801D1202309
:1034E0001F431C9B0733072293431A0008321C9288
:1034F00004970B9A039202941A685B6800920193F6
:103500005B462A0041463000FFF7FCF90500119B9D
:1035100001331193C0E502231A003A4091463B4221
:103520001DD001241C9B1A1D1C926F1C18785B4631
:103530002A004146B0474B46002B14D1119B013362
:1035400011933D00A8E5571C5B4641462020B0473B
:1035500023003A005C1C9D42F5D81500E2E70123E8
:103560002A000B9DF6E73A00B1460B9E06E0571C79
:103570005B4641462020C8472C003A00651CA64205
:10358000F5D817004E46D9E701330A00197800290B
:1035900002D0511E002AF7D152469B1A8022D20037
:1035A000390011408946174202D0A34200D92300B6
:1035B00002221100394010913A4209D02A00250018
:1035C00057469A4633004E46994621E022004CE683
:1035D0002A004546A04606E0541C5B4629002020F0
:1035E000B0473B0022005F1C0B999942F4D8444637
:1035F000A8463B00250057469A4633004E4699465A
:1036000006E01D000137541C5B464146C8472200B6
:103610003878002804D0002EF4D06B1E002DF0D195
:10362000150053464E46109A002A03D1119B0133D0
:10363000119331E50B9F2A0006E0551C5B4641467D
:103640002020B04723002A005C1C9F42F5D81500BB
:10365000ECE721233B431C9A111D1C911268059332
:1036600008230493039408330293002301930092E8
:103670005B462A0041463000FFF75FF80500119BCA
:103680000133119308E56C1C5B462A004146252056
:10369000B047119B013311932500FDE46C1C5B4680
:1036A0002A004146B047119B013311932500F3E4F2
:1036B0000A4B9A46EEE4B2465D450DD35B465A1E70
:1036C0005B4641460020D047280013B0F0BCBB4603
:1036D000B246A946A046F0BD2A00F1E749250010F0
:1036E00000B585B0029003910121044800931300B6
:1036F0004A4202A9FFF7C0FC05B000BD4B250010EF
:1037000000BEFDE710B5FFF7FBFF000030B583B04A
:103710000D001900002A0BD0074B084C01920093B2
:103720002B000200200000F05FF90120FFF7E8FF06
:10373000034B1A00F1E7C046044500101445001081
:103740001045001010B5EFF30583002B00D000BE2C
:10375000FEF7EAF9034C01E008CC9847024B9C4283
:10376000FAD310BD7C3D0010843D001010B503005D
:10377000080011001B68984710BD0000F8B507004D
:103780000D001600437D002B02D0002400200CE029
:1037900003681100280098472DE03B7D10E03B684E
:1037A000154802219847601C0134B44214DA002CF9
:1037B000F3DD2B19013B1B780D3B5A425341DBB221
:1037C0002A5D0A2AF0D1002BEED1A042E7DA3B684D
:1037D000211A28189847E2E7B04203DA3B68311A09
:1037E00028189847002E06DDAD19013D2B780D3BBA
:1037F0005A4253413B75F8BD984A001070B5050018
:103800000368002B16D00C4B1C6805E0290004C986
:103810002000FFF7B3FF2469002C09D02368002B98
:10382000F9D0064B1B68002BF0D0A342F3D1EDE793
:1038300000232B6070BDC046E4060020E80600208F
:1038400070B505000C000B68802B05D023685A1C4E
:103850002260E418257170BD0800FFF7CFFFF5E77F
:1038600010B5FDF719FF074A002312184B41002B32
:1038700003DB054800F05CFA10BD01225242034B05
:10388000F7E7C04640420F0018040020FFFFFF7F0B
:1038900010B5024800F034FA10BDC04618040020EC
:1038A000F0B5CE46474680B583B006000D00904681
:1038B0001C00FFF7D5FF81466B1C05D0002C08D0FB
:1038C000184F194B1C6807E0300000F0DFF90500C5
:1038D000F4E7164FF5E72469002C17D02368002B76
:1038E000F9D0134B1B68002B01D0A342F3D12A005F
:1038F00031002000B8474346002BECD06B46D91D61
:103900000A230B7001222000B847E4E74B46002B46
:1039100005D1280003B0C0BCB946B046F0BDFFF7E2
:10392000B7FFF6E77D370010E40600206D37001082
:10393000E8060020094A01E010331A001368002B42
:1039400008D08342F8D1002907D10369136000230E
:10395000036102E0002900D010607047E4060020F7
:1039600010B5064B1C6801E098472469002C03D071
:103970006368002BF8D1F8E710BDC046E4060020CC
:1039800010B500F043F9012010BD70B5050000F03E
:103990007DF904000123012201002800FFF780FFC8
:1039A000FFF7DEFF200070BD70B5A2B004000E006E
:1039B000FFF756FF0500002301930A483300220059
:1039C00001A9FFF78DFE040001A8FFF717FFFFF71D
:1039D000C7FF002D02D1200022B070BDFFF758FFB5
:1039E000F9E7C046413800100FB400B583B004A910
:1039F00001C90191FFF7D8FF03B008BC04B0184714
:103A000010B582B00C00144BC3185A425341134AEC
:103A10005B009B5E8B4204D06B46DA1D1470002164
:103A200015E06B46DA1D0D23137000210029F3D138
:103A300083699B06FCD41378036001310132F5E7FA
:103A400083699B06FCD4137803600131013200299D
:103A5000F6D002B010BDC0460080FCBF3009002087
:103A600082B000226B46D91D06E08369DB06FCD4D8
:103A700003680B7001320131002AF6D06B46D87909
:103A800002B0704770B506000D00002405E0315DFE
:103A9000034B1868FFF7B4FF0134AC42F7DB70BD8D
:103AA00034090020F8B506000D00002705E07C1C55
:103AB000F719FFF7D5FF38702700AF4204DA0D4A37
:103AC00010688269D206F2D50B4A1268002A0AD021
:103AD000084A126850219163506B18390140074B16
:103AE0009C4662441160002F01D03800F8BD033FAE
:103AF000FBE7C04634090020B00600203410000067
:103B000010B5064B1B68002B06D0054A1268002131
:103B10009163044A1068984710BDC046B006002063
:103B200034090020B4060020024B1A6893691B0771
:103B3000FCD470473409002070B51D4B1B681D4A2A
:103B4000934207D0142400281ED01B4B1B68002B67
:103B500002D070BD1524F6E7174B1860174B19609B
:103B600017492000FCF7B2FE01212000FCF79CFE63
:103B70000F4B1B6850229A63596B183A0A4011493F
:103B80008C4663441A60E4E70B4A1268002AE0D0CE
:103B900000259D6300212000FCF786FE08492000D7
:103BA000FCF7CAFF044B1D60044B1D60D1E7C04603
:103BB0003409002000800340B0060020B406002035
:103BC000013B00103410000070B50D001C000D4BBF
:103BD0001860002A0BDA002C0EDA0A4B186829004C
:103BE000FDF702FE08480121FFF7A4FE70BD022187
:103BF0001000FCF731FCEEE702212000FCF72CFC62
:103C0000EBE7C046340900200004002010B5074B44
:103C10001B78074B1B78074B1B78E12101230022FF
:103C200049020548FFF7D0FF10BDC046F04A00101A
:103C3000EC4A0010E84A00100040034010B502486A
:103C400000F004F810BDC0462007002030B589B050
:103C5000040004AD0D2200212800FEF769FC0D22AE
:103C600000216846FEF764FC4B232B700D22694649
:103C7000280000F03DF8002304E05A1D69468A5CE4
:103C8000E2540133072BF8DD09B030BD10B58307CE
:103C90000AD00300032102E001330B4205D01A7859
:103CA000002AF9D1181A10BD030019680C4A0D4CEE
:103CB0008A188A4322420FD15968094A04338A1864
:103CC0008A43224208D15968054A04338A188A4334
:103CD0002242F1D000E001331A78002AFBD1E1E75B
:103CE000FFFEFEFE80808080F8B5C0460000000028
:103CF00001B40248844601BC604700BF7D02002039
:103D000001B40248844601BC604700BFCD010020D9
:103D100001B40248844601BC604700BF550300203F
:103D200001B40248844601BC604700BF550300202F
:103D300001B40248844601BC604700BF99010020DD
:103D4000391B0010651B0010CD1C00102125001030
:103D50005523001099240010011C0010811B001035
:103D6000A11B0010B51B0010010E0010BD1B0010A0
:103D7000E9150010251B0010A1070010B10200106A
:043D80003D3C0010B6
:103D880045786962696E646F206EC3BA6D65726F3B
:103D98003A2025640A00000021287261775F697261
:103DA800715F6D61736B5B6765745F636F72655F8D
:103DB8006E756D28295D2026206770696F5F6D61BB
:103DC800736B29002F686F6D652F656D6572736F52
:103DD8006E2F2E7069636F2D73646B2F73646B2F56
:103DE800322E312E302F7372632F7270325F636FF1
:103DF8006D6D6F6E2F68617264776172655F677051
:103E0800696F2F6770696F2E6300000021656E610E
:103E1800626C6564207C7C20287261775F697271AE
:103E28005F6D61736B5B6765745F636F72655F6E0F
:103E3800756D28295D2026202831756C6C3C3C67FF
:103E480070696F2929207C7C2063616C6C626163D6
:103E58006B735B6765745F636F72655F6E756D2802
:103E6800295D00000A2A2A2A2050414E4943202A67
:103E78002A2A0A0030783163203D3D20282A696EBD
:103E88007374293E3E313175000000002F686F6D54
:103E9800652F656D6572736F6E2F2E7069636F2D58
:103EA80073646B2F73646B2F322E312E302F737225
:103EB800632F7270325F636F6D6D6F6E2F68617202
:103EC80064776172655F6972712F6972712E630020
:103ED80064656C7461203E3D202D323034382026D4
:103EE800262064656C7461203C3D203230343620D5
:103EF800262620212864656C74612026203129003B
:103F0800212864656C7461203E3E2031317529009A
:103F180063757272656E74203D3D205F5F756E68D3
:103F2800616E646C65645F757365725F6972712038
:103F38007C7C2063757272656E74203D3D206861DB
:103F48006E646C65720000006972715F68616E640E
:103F58006C65725F636861696E5F667265655F73E1
:103F68006C6F745F68656164203E3D20300000001E
:103F7800767461626C655F68616E646C6572203D21
:103F88003D205F5F756E68616E646C65645F757314
:103F980065725F6972710000212828282875696E8A
:103FA800747074725F742972656D6F76655F74687A
:103FB800756D625F62697428767461626C655F68AA
:103FC800616E646C65722929202D20282875696E18
:103FD800747074725F74296972715F68616E646C61
:103FE80065725F636861696E5F736C6F74732929AA
:103FF80020252073697A656F6628737472756374F7
:10400800206972715F68616E646C65725F63686174
:10401800696E5F736C6F74292900000021657863ED
:10402800657074696F6E207C7C2065786365707438
:10403800696F6E203D3D206E756D202B20565441D2
:10404800424C455F46495253545F49525100000063
:1040580066616C736500000069735F7368617265FF
:10406800645F6972715F7261775F68616E646C65C5
:104078007228736C6F745F68616E646C6572290076
:10408800657863657074696F6E000000666F756EA1
:104098006400000031203D3D202875696E747074FD
:1040A800725F74296C2D3E7370696E5F6C6F636B01
:1040B800000000002F686F6D652F656D6572736F66
:1040C8006E2F2E7069636F2D73646B2F73646B2F63
:1040D800322E312E302F7372632F636F6D6D6F6EBA
:1040E8002F7069636F5F73796E632F6D7574657870
:1040F8002E630000746F74616C0000006D74782D7D
:104108003E636F72652E7370696E5F6C6F636B00D0
:104118006C6F636B5F69735F6F776E65725F6964FD
:104128005F76616C6964286D74782D3E6F776E6573
:10413800722900006D74782D3E656E7465725F6338
:104148006F756E7400000000706F6F6C2D3E74699F
:104158006D65725F616C61726D5F6E756D203D3D5E
:104168002074696D65725F616C61726D5F6E756DEB
:10417800000000002F686F6D652F656D6572736FA5
:104188006E2F2E7069636F2D73646B2F73646B2FA2
:10419800322E312E302F7372632F636F6D6D6F6EF9
:1041A8002F7069636F5F74696D652F74696D652E13
:1041B8006300000064656661756C745F616C6172B0
:1041C8006D5F706F6F6C5F696E697469616C697A35
:1041D8006564282900000000417474656D70746579
:1041E8006420746F20736C65657020696E736964F0
:1041F80065206F6620616E20657863657074696FED
:104208006E2068616E646C65723B20757365206210
:104218007573795F7761697420696620796F752095
:104228006D7573740000000048617264776172658F
:1042380020616C61726D20256420616C7265616417
:104248007920636C61696D656400000076636F5F57
:1042580066726571203E3D205049434F5F504C4C7B
:104268005F56434F5F4D494E5F465245515F485A2E
:104278002026262076636F5F66726571203C3D209C
:104288005049434F5F504C4C5F56434F5F4D415828
:104298005F465245515F485A000000002F686F6D15
:1042A800652F656D6572736F6E2F2E7069636F2D44
:1042B80073646B2F73646B2F322E312E302F737211
:1042C800632F7270325F636F6D6D6F6E2F686172EE
:1042D80064776172655F706C6C2F706C6C2E630014
:1042E8006662646976203E3D2031362026262066A7
:1042F80062646976203C3D203332300028706F7349
:10430800745F64697631203E3D2031202626207076
:104318006F73745F64697631203C3D20372920260D
:10432800262028706F73745F64697632203E3D20C2
:104338003120262620706F73745F64697632203CC2
:104348003D203729000000007265665F667265715E
:10435800203C3D202876636F5F66726571202F20B0
:10436800313629006D697373696E6720646F7562F1
:104378006C652066756E6374696F6E002A282875EF
:10438800696E74385F74202A29282828766F696432
:10439800202A29726F6D5F7461626C655F666C6F4D
:1043A8006174292D322929202A2034203E3D2053AA
:1043B800465F5441424C455F56325F53495A450067
:1043C8002F686F6D652F656D6572736F6E2F2E7018
:1043D80069636F2D73646B2F73646B2F322E312ECC
:1043E800302F7372632F7270325F636F6D6D6F6EF3
:1043F8002F7069636F5F646F75626C652F646F758A
:10440800626C655F696E69745F726F6D5F7270323E
:104418003034302E630000002A282875696E7438FD
:104428005F74202A29726F6D5F7461626C652D322A
:1044380029202A2034203E3D2053465F5441424CD7
:10444800455F56325F53495A450000002F686F6D2B
:10445800652F656D6572736F6E2F2E7069636F2D92
:1044680073646B2F73646B2F322E312E302F73725F
:10447800632F7270325F636F6D6D6F6E2F7069633B
:104488006F5F666C6F61742F666C6F61745F696EC5
:1044980069745F726F6D5F7270323034302E6300F2
:1044A8004465627567000000626F6F74325F77322F
:1044B8003571303830000000302E3100322E312E68
:1044C800300000007069636F5F7700005534433433
:1044D8004F313254000000004665622020322032FD
:1044E80030323500666E692B00000000666E690088
:1044F8006E616E00666E692D000000002C206675E6
:104508006E6374696F6E3A20000000006173736512
:104518007274696F6E2022257322206661696C654A
:10452800643A2066696C6520222573222C206C6908
:104538006E65202564257325730A00005541525481
:1045480020737464696E000055415254207374647A
:104558006F7574005541525420737464696E202F2E
:10456800207374646F757400666C6173685F6F663E
:104578006673202B20636F756E74203C3D20504974
:10458800434F5F464C4153485F53495A455F425930
:10459800544553002F686F6D652F656D6572736F95
:1045A8006E2F2E7069636F2D73646B2F73646B2F7E
:1045B800322E312E302F7372632F7270325F636F19
:1045C8006D6D6F6E2F68617264776172655F666C7E
:1045D8006173682F666C6173682E6300636F6E6E1B
:1045E8006563745F696E7465726E616C5F666C6139
:1045F80073685F66756E6320262620666C61736833
:104608005F657869745F7869705F66756E63202688
:104618002620666C6173685F72616E67655F65729C
:104628006173655F66756E6320262620666C61730C
:10463800685F666C7573685F63616368655F6675FC
:104648006E630000636F6E6E6563745F696E746598
:10465800726E616C5F666C6173685F66756E63200D
:10466800262620666C6173685F657869745F78696F
:10467800705F66756E6320262620666C6173685FBE
:1046880072616E67655F70726F6772616D5F667584
:104698006E6320262620666C6173685F666C75738E
:1046A800685F63616368655F66756E63000000003C
:1046B800636F6E6E6563745F696E7465726E616C4C
:1046C8005F666C6173685F66756E63202626206678
:1046D8006C6173685F657869745F7869705F667527
:1046E8006E6320262620666C6173685F666C75733E
:1046F800685F63616368655F66756E6300000000EC
:104708006770696F5F7365745F6972715F656E6109
:10471800626C6564000000006972715F6164645FC7
:104728007461696C5F746F5F667265655F6C6973ED
:1047380074000000696E736572745F626C5F333277
:10474800000000006972715F72656D6F76655F6861
:10475800616E646C657200006D616B655F6A5F31E4
:10476800360000007265736F6C76655F6A5F31367C
:10477800000000006972715F6164645F7368617250
:1047880065645F68616E646C657200006972715F70
:104798007365745F6578636C75736976655F686166
:1047A8006E646C65720000006D757465785F65787D
:1047B800697400006D757465785F656E7465725F05
:1047C800626C6F636B5F756E74696C0072756E7482
:1047D800696D655F696E69745F6D757465780000F1
:1047E800616C61726D5F706F6F6C5F6765745F6439
:1047F800656661756C740000616C61726D5F706FE5
:104808006F6C5F6972715F68616E646C65720000DD
:10481800706C6C5F696E6974000000005F5F6165B1
:104828006162695F646F75626C655F696E69740067
:104838005F5F61656162695F666C6F61745F696E15
:104848006974000006005250D3F07542A844001065
:1048580006005250E182887FB04400100600525092
:104868003ABCA911C044001006005250ABB36053C3
:10487800C444001006005250BBFF3CB6CC440010A4
:1048880006005250861C0302D44400100600525001
:104898005422A29DE044001005005250DE65F468E1
:1048A800544E0010E6300010FE300010FE300010AC
:1048B800F2300010FE300010FE300010FE30001004
:1048C800FE300010FE300010FE300010FE300010E8
:1048D800DA300010FE300010CE300010FE3000102C
:1048E800FE300010C2300010CE310010F43100103C
:1048F80016320010F4310010AE310010F4310010FF
:10490800F4310010F4310010F4310010F4310010CB
:10491800F4310010F4310010EA310010F4310010C5
:10492800F4310010F4310010F4310010F4310010AB
:1049380022320010863600109C3600109C3600107B
:104948009C3600109C3600109C3600109C360010D7
:104958009C3600109C3600109C3600109C360010C7
:104968009C3600109C3600109C3600109C360010B7
:104978009C3600109C3600109C3600109C360010A7
:104988009C3600109C3600109C3600109C36001097
:104998009C3600109C3600109C3600109C36001087
:1049A8009C3600109C3600109C3600109C36001077
:1049B8009C360010C83400108A340010C834001027
:1049C8009C3600109C3600109C3600109C36001057
:1049D8009C3600109C3600109C3600109C36001047
:1049E8009C3600109C3600109C3600109C36001037
:1049F8009C3600109C3600109C3600109C36001027
:104A08006E3200109C3600109C3600109C36001048
:104A18009C3600109C3600109C3600109C36001006
:104A28009C3600109C3600106E32001016350010AF
:104A38006E320010C83400108A340010C8340010D8
:104A4800000000000000F03F0000000000002440CB
:104A580000000000000059400000000000408F40A6
:104A6800000000000088C34000000000006AF84011
:104A78000000000080842E4100000000D012634135
:104A88000000000084D797410000000065CDCD41AB
:104A98000D0A00000600525053B4F4A15C45001002
:104AA80008005250120000000800525092100000F6
:104AB800666C6173685F646F5F636D64000000001B
:104AC8004C48001058480010644800107048001006
:104AD8007C4800108848001094480010A048001036
:0C4AE800B04A0010A84A00109C4A0010C0
:104AF40010B503000468EFF3108272B62068002832
:104B0400FCD0BFF35F8F0420185600280BDB00296C
:104B140010D0086000201B68BFF35F8F002119606C
:104B240082F3108810BDD0210906097849B21971A1
:104B34000120F0E70020EEE7F0B5D6464F464646A2
:104B4400C0B50500904699460368002B20D0D023B9
:104B54001B061B785BB29A462F68EFF3108472B67B
:104B64003E68002EFCD0BFF35F8F0423EB56002B6E
:104B740014DB2B68BFF35F8F00221A6084F3108864
:104B84004046494600F008F90028E5D000200FE02F
:104B94000A4B0B4A0B48A62100F0F6F853462B713A
:104BA4002B68BFF35F8F00221A6084F31088012002
:104BB400E0BCBA46B146A846F0BDC0460441001068
:104BC400BC470010BC40001070B582B00600150050
:104BD4001C0001A9FFF78CFF002807D1019B5BB2E1
:104BE400D0221206127852B2934201D102B070BDA3
:104BF4002A0023003000FFF79FFFF7E710B5016894
:104C0400EFF3108372B60A68002AFCD0BFF35F8FFB
:104C140004228256002A0ADBFF2202710268BFF3D3
:104C24005F8F0021116083F3108840BF10BD034BD8
:104C3400034A0448D52100F0A7F8C04618410010E3
:104C4400B0470010BC400010094B1B78002B08D063
:104C54000CE09A0080214905511808680549505014
:104C640001333F2BF5DD024B01221A707047C04619
:104C740038090020A805002010B5014B984710BD45
:104C8400A905002000280AD003231B02054A126844
:104C94005340C02292001340034A1360704702231A
:104CA400F3E7C0460C8001400C900140F0B5D646B5
:104CB4004F464646C0B507000E00150018239A4615
:104CC4001B881422904610882849984781465346E9
:104CD4001B884246108826499847040053461B887F
:104CE400424610882349984780464B46002B0CD0F7
:104CF400002C0AD0002808D0FFF7A6FFC847A04719
:104D04000020FFF7BFFF2A000FE01B4B1B4A1C4883
:104D1400D12100F039F8002B07D0002A05D0C02398
:104D24005B051B6E3370013A01362B00134312D01E
:104D3400C0235B059C6A08232340A407EBD5002D00
:104D4400E9D0511B0D29E6D83878C02149050866F9
:104D5400013D0137DFE70120FFF794FFC047FFF76C
:104D64008BFFE0BCBA46B146A846F0BD49460000F8
:104D74004558000046430000B8460010B84A0010E9
:104D84009C4500107047C04601B40248844601BCEB
:104D9400604700BF0D37001001B40248844601BCCF
:104DA400604700BFDD140010011000000000000087
:104DB40000000100000000000000000000000200EC
:104DC40000000000000000000000030000000000DC
:104DD400000000000000FF000000000001B548686A
:104DE40001318E460047704609380149884701BDA4
:104DF400C50C0010000000000000000000000000CE
:104E0400000000000000000020040020000000005A
:104E1400503300004C330000543300005233000080
:104E24004D5300004D430000533400004334000050
:104E3400853A0010293B0010A53A0010393B0010B8
:104E4400000000000001000000000000000000005D
:04000005100001E9FD
:00000001FF
