:020000041000EA
:1000000000B5324B212058609868022188439860DF
:10001000D860186158612E4B002199600221596106
:100020000121F02299502B49196001219960352056
:1000300000F044F80222904214D00621196600F024
:1000400034F8196E01211966002018661A6600F04E
:100050002CF8196E196E196E052000F02FF8012189
:100060000842F9D1002199601B49196000215960AB
:100070001A491B48016001219960EB211966A021F2
:10008000196600F012F800219960164914480160C1
:100090000121996001BC002800D000471248134993
:1000A000086003C880F30888084703B5996A0420EC
:1000B0000142FBD001200142F8D103BD02B5186610
:1000C0001866FFF7F2FF186E186E02BD00000240BE
:1000D000000000180000070000035F00212200005C
:1000E000F4000018222000A00001001008ED00E03C
:1000F00000000000000000000000000074B24E7A12
:1001000000200420F7010010C3010010C5010010F9
:10011000C1010010C1010010C1010010C101001097
:10012000C1010010C1010010C1010010C701001081
:10013000C1010010C1010010C9010010CB01001065
:10014000CD010010CD010010CD010010CD01001037
:10015000CD010010CD010010CD010010CD01001027
:10016000CD010010CD010010CD010010CD01001017
:10017000CD010010CD010010CD010010CD01001007
:10018000CD010010CD010010CD010010CD010010F7
:10019000CD010010CD010010CD010010CD010010E7
:1001A000CD010010CD010010CD010010CD010010D7
:1001B000CD010010CD010010CD010010CD010010C7
:1001C00000BE00BE00BE00BE00BE00BEEFF3058054
:1001D000103800BEF2EB88717438001094380010AB
:1001E0003802001090A31AE71E481F49086006C88D
:1001F00081F3088810471D480068002801D019487D
:10020000F3E70DA40ECC002902D000F012F8F9E7B4
:100210001749184A002000E001C19142FCD116495B
:100220008847164988471649884700BEFDE701C937
:1002300001C29A42FBD3704794380010C0000020DE
:10024000C80300209C3B0010000004200000042094
:100250009C3B00100010042000100420000000004F
:10026000704700000000000008ED00E0000000D032
:10027000C8030020B8080020ED2A0010D5020010A5
:10028000AD2A0010F8B5C04606480749091A8B1078
:10029000C90FC91810B5491003D0044B002B00D06A
:1002A000984710BDC8030020C803002000000000CC
:1002B000054B10B5002B03D00449054800E000BFF2
:1002C000FFF7E2FF10BDC046000000007C060020E2
:1002D000BC2E0010002070470FB400B583B0084852
:1002E00002F00CFD049B002B07D005A9019118001A
:1002F00002F014FD034802F001FD012002F0D4FBDE
:10030000C02E0010D02E0010EFF3108072B6034BF9
:100310001B68002BFBD0BFF35F8F70472C0100D010
:10032000BFF35F8F024B00221A6080F31088704782
:100330002C0100D0F8B506000C001500FFF7E4FF13
:10034000E308F718F15C07222240012393400B4297
:1003500005D1DBB20B433B70FFF7E2FFF8BD210094
:100360002800FFF7B9FF0000054A1078431CDBB2F4
:100370001370172B02D9130010221A707047C04651
:1003800078030020002307E0054A9A189200BFF383
:100390005F8F0021116001331F2BF5D97047C046D4
:1003A00040000034074B9B68103080001950BFF3A9
:1003B0005F8FBFF35F8F044B0021196082F31088B9
:1003C0007047C04600ED00E0240100D000487047AF
:1003D00000E400E010B5FFF7F9FF002302E0034A54
:1003E00004C00133072BFAD910BDC046808080803D
:1003F000002A05D0044BC022520099501960704762
:10040000014A8023D150FAE700E100E010B50A006C
:100410001F230340012199404009FFF7E9FF10BD68
:10042000024B9B6810308000C058704700ED00E020
:1004300070B504000D00EFF3108672B60C4B1B680C
:10044000002BFBD0BFF35F8F2000FFF7E9FF094BC4
:10045000984201D0A84205D1320029002000FFF7C0
:10046000A1FF70BD044B054A0548E12102F022FBC3
:10047000240100D0CD010010302F0010583500109D
:10048000EC2E0010024B9C466144890001607047CD
:100490004000003410B50400FFF766FF01002000A3
:1004A000FFF7F0FFFF232371BFF35F8F10BD10B57F
:1004B0000400FFF759FF01002000FFF7E3FFFF23CF
:1004C000237100236371BFF35F8F10BD10B50D4C16
:1004D00009E00D4B0D4A0E481A2102F0EBFA2000FC
:1004E000FFF7D8FF08340B4B9C4209D22368002B3E
:1004F000F5D0012BEDD12000FFF7D9FF0834F2E74A
:1005000010BDC046C0030020682F001098350010B1
:10051000882F0010C8030020000408437047000023
:100520000A4B1968EFF3108372B60A68002AFCD0F0
:10053000BFF35F8F054A1268BFF35F8F0021116020
:1005400083F3108840BF002000217047B0080020CE
:10055000F0B5DE4657464E464546E0B583B0EFF36C
:10056000058303221A400092B04B9200D35898465C
:100570001B78009A934207D10123009A93401A00F6
:100580000193AB4B1A6015E1AA4BAB4AAB489221E1
:1005900002F090FA43465A694B465B004B44DB003D
:1005A00093469B445B469E68DF68A54800F02CFBA1
:1005B000801BB941002900DA06E1002F60DB5B46B1
:1005C0001C69A04B9C4245D043460820185E5B4600
:1005D000598889B2FFF7A0FF5B465969A04704001C
:1005E0000D0023002B434BD0002D3DDA30003900A5
:1005F000001BA9415B469860D96000241C5F002C59
:1006000000DAE1E043465A69924663001B19DB00B9
:1006100053449A68DB6805000E00AD1A9E41002E17
:1006200000DAD1E043461C8147460837BC466346A2
:1006300000255D5F002D1DDB6C006419E40054444F
:10064000A268E36806000F00B61A9F41002F11DB75
:10065000A446ECE75B465C692369200098470028C4
:100660000ED065682468BCE7754800F0CDFA001923
:100670006941BFE75B461D804B4662461380A3E09D
:100680005B4600229B5E424613811269EFF31083A2
:1006900072B611680029FCD0BFF35F8F4246022179
:1006A000525E59460A804246494651801269BFF35C
:1006B0005F8F0021116083F3108885E0434619693C
:1006C000EFF3108372B60A68002AFCD0BFF35F8F85
:1006D0004246928812B291460122524241468A8095
:1006E0000A69BFF35F8F0021116083F310881AE05D
:1006F0009B465B4600229A5E002A0BDB53009B1848
:10070000DB0053449868D96826002F00361A8F41C1
:10071000002FEDDA4B4659460B80634600215B5EA5
:10072000994663461A804B46002B53DB43465A6971
:1007300092464B465B004B44DB009C46D4446346E8
:100740009C68DD6846460836B346D2E70023424639
:1007500093714146083143460820185E11E001229A
:100760005242D317A260E360434608229B5E834255
:1007700006D00D80434608229B5E238043461881A5
:100780002800431C2AD043465A6943001B18DB004B
:10079000D418D55E63881BB2002BE0DB2100EFE7A5
:1007A0006B1C2AD1264800F02FFA241A8D41002D07
:1007B00034DC31D0224B019A5A63434608229B5EB7
:1007C0009946002B00DBE5E643469B881BB2002BD5
:1007D00000DB73E743469B79002BB7D143460822E1
:1007E0009A5E002A1ADB4346596953009B18DB00C6
:1007F000CB189C68DD68631CD2D011498A6AA01AA4
:10080000009B04339B005B589B1A9842CAD2009B02
:1008100004339B005C50C5E7002CCBD040BF03B035
:10082000F0BCBB46B246A946A046F0BD94060020E7
:100830003C7005401C300010C435001048300010DA
:10084000004005405105001070B504000D00110076
:100850000126AE4006622800FFF7EAFD01212800CC
:10086000FFF7D4FD024B9C466444266070BDC04631
:1008700038200000F8B5CE46474680B506008946C8
:1008800090461F00C160FFF76FFD154B9C4660440A
:100890008000306143463370BBB27381D0221206B0
:1008A00012787270012252423281B2809B1873809A
:1008B000002406E0621E736965002D19ED005A538D
:1008C0000134BC42F6D3074B42469200D650064A4A
:1008D00041464846FFF7B8FFC0BCB946B046F8BD30
:1008E00040000034940600205105001010B5064B5E
:1008F0001B69002B01D0044810BD044B044A054875
:10090000652102F0D7F8C0467C0300208830001033
:10091000AC35001048300010F8B504000569EFF35D
:10092000108072B629680029FCD0BFF35F8F0221C6
:10093000665E656971008919C9006D18002E02DBB9
:100940000027E95F61802169BFF35F8F00270F6097
:1009500080F31088002E2CDB0699296107996961C4
:10096000AA60EB606B8801335B04590C002B00D14B
:10097000012169803000FFF7CFFD2169EFF310837B
:1009800072B60A68002AFCD0BFF35F8FA2882A8063
:10099000A6802269BFF35F8F0021116083F3108866
:1009A000E368217801228A4003498C4663441A6037
:1009B000F8BD01204042FBE73C20000070B582B04A
:1009C000060014001D0008AB1B78002B07D100F0B7
:1009D00023F922002B00121A8B41002B0ADB079B04
:1009E0000193069B009322002B003000FFF794FF39
:1009F00002B070BD0020FBE7F0B5C64600B584B07C
:100A00000500884616001F000AAB1C78FFF76EFF32
:100A10000294019700962A004346FFF7CFFF04B0E7
:100A200080BCB846F0BD000030B5030008145A89F8
:100A300090422EDA5C6942001218D200A2181D6999
:100A4000EFF3108472B628680028FCD0BFF35F8FE4
:100A5000508880B20904090C884212D000201A691B
:100A6000BFF35F8F0021116084F31088002811D03C
:100A7000DA681B7801319940074B9C46624411604B
:100A800008E00649014389B2518001229A71012090
:100A9000E5E7002030BDC0463C2000000080FFFF9D
:100AA00010B50400FFF722FF2100FFF7BDFF10BDC6
:100AB00070B582B005000C00EFF30583002B12D057
:100AC0003A4B5B6A8B4209D3384A926A824208D217
:100AD0008B4201D0012002E0002000E0002002B0A3
:100AE00070BD0120FBE7FFF701FFC16803788A6A48
:100AF0002E00A81A04339B005B589B1A984212D30D
:100B000020BF2A4B5B6A9C4209D8284A926A9542C8
:100B100007D99C4201D00120E1E70020DFE7002057
:100B2000DDE70120DBE7224A0023009328002100B3
:100B3000FFF762FF00280BDD1C4B5B6A9C421BD851
:100B40001A4A926A954229D99C4213D0012314E093
:100B5000164B5B6A9C4209D8144A926A954207D99F
:100B60009C4201D00120BAE70020B8E70020B6E798
:100B70000120B4E7002300E00023002B00D120BFB8
:100B8000FFF78EFF094B5B6A9C420BD8074A926ABB
:100B9000964209D99C4203D00120A0E70123ECE74B
:100BA00000209CE700209AE7012098E700400540DC
:100BB00021050010004870470040054010B50B4B60
:100BC0001B69002B04D00A480A21FFF75BFC10BD0B
:100BD000FFF7F0FF0400032100F00CF80348102396
:100BE00003222100FFF746FEEDE7C0467C0300200C
:100BF000B008002010B5024A0248FFF79BFB10BD69
:100C0000AC300010480600200200436A906A1900C8
:100C1000536A9942FAD1704710B50248FFF7F4FFC2
:100C200010BDC04600400540F8B5D646474680B5E1
:100C300006000D001700984644002418A400294B14
:100C40009C4664446368089A934200D26260331FF2
:100C5000DBB29A46012B2ED980221201C0239B01C0
:100C6000E3181A60204BB200D158002907D0586908
:100C700000F04AFA013043001B18033BFDD27F010C
:100C800023685F40E0233B4080225201A21813609A
:100C90005346012B1AD980239B01E31880221201AD
:100CA0001A60089B6360104BB6004246F250C0BC0D
:100CB000BA46B046F8BD012DCED10322C0239B0118
:100CC000E3181A60A368DB07FCD5D8E72168694000
:100CD00003230B401360A3680122AA401A42FAD0F2
:100CE000D9E7C046008000404C060020F0B583B034
:100CF00005000E0017001800089900F005FA03001F
:100D0000089A140200943A0031002800FFF78CFF83
:100D100003B0F0BD10B582B0802464000094FFF7EA
:100D200083FF02B010BD0000014B8000C058704727
:100D30004C060020F0B5C64600B504000E001700B2
:100D40001D00374800F0E0F98046364BFA18364B64
:100D50009A4239D80100380000F0D6F90200103A62
:100D600098235B009A4235D86B1E062B38D8069B19
:100D7000013B062B34D83F09474537D32D04069B4A
:100D80001B031D432368002B36DB284B9C4244D0B9
:100D90000C2201239340264A1360264A1360264AF8
:100DA0001268190091430A1EF9D12660A060234BF6
:100DB000E31821321A602268002AFCDAE560082272
:100DC0001A6080BCB846F0BD1D4B1E4A1E4811215A
:100DD00001F070FE1D4B1B4A1B48192101F06AFEF1
:100DE0001B4B184A18481C2101F064FE194B154A88
:100DF0001548232101F05EFE22683F231340B342D1
:100E0000C3D1A3681B051B0D8342BED1E368EE224C
:100E1000D2021340AB42B8D1D3E70D22B9E7C046A6
:100E2000001BB70080E84BD380F8A93200C0024015
:100E300000E0004000F0004008C000400430000026
:100E4000D0300010DC35001020310010643100106B
:100E500080310010CC31001080239B000B43014AED
:100E6000D36270470080054010B5010018231B882D
:100E700014221088984710BD10B5010018231B8854
:100E800016221088984710BDF0B5C64600B5070079
:100E90000E0000250123984600E00135B5420AD234
:100EA000AC003C192068FFF7DFFF20600028F4D178
:100EB00000239846F1E7404680BCB846F0BD0000EC
:100EC000064BAA2212011A602F22DA60044B054A4F
:100ED0001A60024B5B68002BFBDA7047004002404F
:100EE0000060024000B0FA0010B5040001E008CC38
:100EF0009847024B9C42FAD310BDC046B42E001056
:100F00007047000010B50248FFF7EEFF10BDC04665
:100F1000782E0010054B064A1A60064B064A1A60E6
:100F2000064B1A68044B9343FAD1704700E0004027
:100F3000BFCDFBFE00F00040FE7F3C0008C000403B
:100F4000044BDB6C002B03D1034B8022D2021A60CE
:100F50007047C046000011504C201150044B054A08
:100F60001A60054B1B68DB43DB01FAD17047C046B2
:100F700000F00040FFFFFF0108C00040034B40228B
:100F80009A675A671A67DA667047C04600F00140F0
:100F900010B5FFF7F7F910BD70B5044DA968044C02
:100FA000C022200000F09EFCAC6070BD00ED00E0AF
:100FB0000000002070B50420FFF7B6FE064900F0DF
:100FC000A3F805000024002C00DD70BDE0B229006C
:100FD000FFF742FF0134F6E740420F0030B583B01F
:100FE000274B00229A67FFF76BFF264B01221A60FE
:100FF000234B5B6C012BFBD1234B03221A60204B4C
:101000009B6B012BFBD10133009304331F4A012159
:101010001F48FFF78FFE052300931E4A01211E483B
:10102000FFF788FE1D4B002202210420FFF772FE0D
:101030001B4D2B00002201210520FFF76BFE194CF0
:101040002300002200210720FFF764FE2300002276
:1010500000210820FFF75EFE8023DB0000932300C1
:10106000002200210920FFF741FE2B000022002171
:101070000620FFF74FFEFFF79DFF03B030BDC046CF
:10108000008000403CB0004030B00040002F685964
:1010900000800240008C864700C00240001BB70061
:1010A00040597307006CDC0201480421014B1847CA
:1010B000A0030020890E0010124A936F9B0815D2DE
:1010C0009066D166002905D0FFE7FFE7FFE7516F83
:1010D000106F704704B580210906C21751400028DF
:1010E00000D0C84301F0B8FE002104BDF0B5146E75
:1010F000556E576F166FFFF7E3FF14665566576717
:101100001667F0BD000000D0114A936F9B0813D200
:1011100010665166002905D0FFE7FFE7FFE7516F32
:10112000106F704704B5002801D00020C04301F0C3
:1011300093FE002104BDC046F0B5146E556E576F86
:10114000166FFFF7E5FF1466556657671667F0BD23
:10115000000000D094464A4A926F9208624601D23B
:1011600028E0C046F0B5464E346E756E776F366F28
:1011700000F020F89446424A146655665767166791
:101180006246F0BD94463E4A926F9208624601D292
:1011900054E0C046F0B53A4E346E756E776F366FD8
:1011A00000F04CF89446364A146655665767166741
:1011B0006246F0BD002B24DB11D000293EDA00B5D9
:1011C000C943404200D1013100F038F8C9434042E0
:1011D00000D10131DB43524200D1013300BD002A6E
:1011E000EBD1002801D1002905D00020C90FC90783
:1011F00001D1C043410800B501F026FE00220023C2
:1012000000BD00B500290ADBDB43524200D10133A7
:1012100000F014F8C943404200D1013100BDC94378
:10122000404200D10131DB43524200D1013300F092
:1012300005F8DB43524200D1013300BD002923D120
:10124000002B18D1002A0CD0BC460D4F38667A66A8
:1012500000210023FFE7FFE7FFE77A6F386F67465B
:101260007047002801D00748010000B501F0ECFDEF
:101270000022002300BD02000B0000200021704767
:10128000000000D0FFFFFFFF002B00D0BFE0130CD9
:1012900028D1002AE7D080B4114F39667A66FFE77B
:1012A000FFE730B4040C7B6F396F1B0423433B66AC
:1012B0007A66FFE7FFE7FFE7C04684B27B6F3D6FCA
:1012C0001B0423433B667A66FFE7FFE7C046002323
:1012D0002C042D0C7A6F386F00196941B0BC70472F
:1012E000000000D0F0B594460025140E01D1120282
:1012F0000835140F01D112010435940F01D1920069
:101300000235D40F01D152000135D40B0134254FE1
:101310007C66254C3C660E0C93B2FFE7FFE7FFE7C7
:101320003C6F6643360C7703BE467343DF0B5B04AA
:10133000C01AB941130C7343DB18C91ACE086643AF
:10134000360CB64493B273431F0F1B01C01AB94148
:10135000130C73431F0B1B05C01AB941860D8F0276
:101360003E436643360C092D24DB520A7243801A31
:101370007703460A6643360C16235B1BDE40DF40CC
:10138000BF1964466643821B70460435063301006C
:10139000D940A840C01900D30131A24206D200238F
:1013A000F0BD0000000000D0FFFFFFFF121B013066
:1013B000F3D3F1E709277F1BFE406446A2B27243D4
:1013C000801A00D20139220C7243130C1204821AC3
:1013D00099410B007046043513370100F940A840CD
:1013E000801900D30131002B02D1A2420AD2F0BDF4
:1013F000013000D30131121BFAD2013BF8D1A242D5
:1014000000D2F0BD013000D30131121BF7E7F0B577
:101410001C0C00D080E00CB400251C0A04D11B0277
:10142000160E3343120208351C0B04D11B01160F94
:101430003343120104359C0B04D19B00960F3343B8
:1014400092000235DC0B02D192185B4101351C0081
:10145000971864410134464F7C66464C3C660E0C3E
:10146000FFE7FFE7FFE7C0463C6F6643360C7703B4
:10147000BE4697B27743C01B00D20139C01B00D2D1
:1014800001399FB27743C91BC91B170C77437E04F0
:10149000FF0B801BB941CE086643360C0C2D33DBA5
:1014A000B644120B1F053A431B0B97B27743C01B80
:1014B00000D201399FB27743C91B170C77433E0412
:1014C0003F0C801BB941860D8F023E43664329279E
:1014D0007F1BFE400C3D7746AF40BF1930BCA2B227
:1014E000ABB272437343801A9941220C7243130CBE
:1014F0001204801A994102000B000137001BA94118
:10150000F9D2781E0021F0BD0C277F1BFE407746E4
:101510007F0BAF40FF19E0E700245D1C07D0144F9C
:101520007D663966FFE7FFE7FFE7FFE73C6F95B2AF
:101530009EB265436643401BB141150C1E0C6543CA
:10154000664336042F0C3E432D04401BB1419942A3
:1015500004D202000B0020000021F0BD01D1904216
:10156000F7D3801A994101349942F2D3F6E700008B
:10157000000000D0FFFFFFFF48404140484018B442
:10158000134B5B68019308BD18B4114B1B680193A2
:1015900008BD94460F4A926F920805D2624618B46D
:1015A0000B4BDB68019308BD0A4AF0B5146E556E0B
:1015B000576F166F6246FFF7F2FF064A14665566CC
:1015C00057671667F0BD18B4014B9B68019308BDBF
:1015D000AC060020000000D0FFB550404240504013
:1015E00059404B40594000E0FFB5154F4C00640D89
:1015F00003D0BC4204D10C0314D80020090D090506
:101600005C00640D03D0BC4204D11C030AD8002244
:101610001B0D1B0501264B4009D44B4003D58B42C3
:1016200000D18242FFBD9942FCD19042FFBD0B43E5
:10163000DB1803431343F5D0C9434918FFBD00002D
:10164000FF07000000B5FFF7CFFF804100BDC04697
:1016500000B5FFF7C9FF01D9002000BD012000BD82
:1016600000B5FFF7B9FF01D9002000BD012000BD82
:1016700000B5FFF7B1FF804100BD012040054A00E1
:10168000121804D85A00121801D8002070470120FF
:10169000704700000021002805D17047C11748405D
:1016A000401AFAD0C90713B5064B1B6898470CBC03
:1016B000441CA2401005120B0349091B09051943DC
:1016C000114310BDAC0700201F04000010B54C00F2
:1016D000620D8023D218DB00D21A5B057E2A10DD52
:1016E0009E3A13DACC170903490819435242D140F4
:1016F000640001341532202A05DAD04008436043E3
:1017000010BD002010BD0846604310BDC80FC018B2
:10171000013810BD18B4024B5B6A019308BD00008C
:10172000AC06002010B50148FEF7D6FDE8310010E8
:1017300070B513231C78012C12D0012C12DC214B24
:10174000214A93642148FFF78FFB214B186070BD3D
:1017500020491D4A9800815001331F2BF8D9ECE72E
:101760000023FAE71C48FFF787FB05001B48FFF73B
:1017700083FB023803789B007F2B09DD124880220F
:10178000290000F0AFF8022C08D0022CDADCD6E7F2
:10179000134B144A1448332101F08CF9134B1A8867
:1017A000B5231B029A4209D1114B1A88114B9A4258
:1017B00004D1114B1A88114B9A42E6D00020FEF753
:1017C0008BFDC04601180010AC0600204C33000011
:1017D000AC070020251700105344000053460000BA
:1017E00000320010E8350010443200105438000078
:1017F000D8380000494600009C38000059460000D7
:1018000007B56046002800D100BE01880A0A0230F0
:10181000DF2AFAD1C9B2820804D3028840880004C2
:10182000104300E00068024A5050039007BD0000DA
:10183000AC06002010B50148FEF74EFD8C330010B9
:1018400070B513231E781848FFF716FB0500012E0C
:1018500011D0012E09DDAB1E1B789B007F2B1DDDF7
:1018600012488022290000F03DF81148FFF7FCFAE9
:10187000104B186070BD0D485422290000F032F85A
:10188000002300E001331F2BE3D8084A9C00A25834
:10189000002AF7D10849054AA150F3E7074B084A47
:1018A0000848422101F006F953460000B007002025
:1018B0004C330000AC070020351800109C3200109B
:1018C000FC350010D032001001480421014B1847AC
:1018D000B0030020890E0010014B1B681847000060
:1018E000B0030020014B5B6818470000B0030020E4
:1018F000704710B5002802D00B684968984710BDA2
:101900000100002007E083001B185B00501C0860EA
:101910001078C01830380A681378303BDBB2092BD6
:10192000F1D97047F0B5DE4657464E464546E0B51C
:1019300083B093461F000C9B9A460D9C0E9B9946C4
:101940000F9B9B0703D0B8460F00060022E00192D0
:10195000A34688464E46B9460700B44207D2551CF6
:101960004B4641462020B84701342A00F5E73D00A8
:101970004F465C46019B9B46B1464646B8463700FB
:101980002E0007E0013C551C5346185D43463900C4
:10199000B0472A00002CF5D135003E0047460F9B8A
:1019A0009B0707D4100003B0F0BCBB46B246A94663
:1019B000A046F0BDB0464E46B9462F005D46531BCB
:1019C000B342EFD2541C4B4641462020B847220078
:1019D000F5E7F0B5CE46474680B585B094469846C3
:1019E0000C9D0D9C0EAB1B789946109A119B129E74
:1019F000B7071CD4002B0CD0F7070AD54F46002F91
:101A000002D10C37374204D0013B02E030272F557A
:101A10000134944201D21F2CF8D9F70707D59C4214
:101A200005D21F2C03D830272F550134F5E7F706D0
:101A300012D5770505D4002C03D0944221D09C42C6
:101A40001FD00F9A102A32D00F9A022A37D01F2C9B
:101A50000AD830222A5501341F2C05D84A46002ABC
:101A600033D02D222A550134039602930194009518
:101A700043466246FFF756FF05B0C0BCB946B046C4
:101A8000F0BD621E012C10D00F9F102F0BD0140040
:101A90000F9A102AD8D1B206D6D51F2CD4D85822E6
:101AA0002A550134D3E7023CCBE71400C9E7B2065C
:101AB000EED41F2CECD878222A550134C7E71F2C0E
:101AC000D2D860322A550134C1E7720703D52B22E0
:101AD0002A550134C8E73207C6D520222A550134D9
:101AE000C2E7F0B5DE4657464E464546E0B593B0F0
:101AF00081468A46089209931CAB10CB1B789B4603
:101B00001E9D219B9846002C03D1102342469A43E8
:101B100090468023DB0046461E4042461A4212D0C1
:101B2000002C22D000260EE03033D9B2771C0AAB4D
:101B3000995529002000FFF7E7FAAC4216D31F2F72
:101B400014D83E00040029002000FFF7DDFACBB2D4
:101B5000092BE9D94246920605D54121C918C9B2D7
:101B60000A39C9B2E2E76121F8E727004346069344
:101B7000209B05931F9B049303955B46029301975B
:101B80000AAB0093099B089A51464846FFF721FF8C
:101B900013B0F0BCBB46B246A946A046F0BDF0B5B6
:101BA000DE4657464E464546E0B597B00A900B9143
:101BB0000C929A46209B9946219F22AA13789B4615
:101BC000249B0993259C289B98464A463A4302D178
:101BD0001032934398468022D20045461540434632
:101BE00013420AD04A463A4341D000252E005346BC
:101BF0000D934D46099B9A461BE02E0053460D93CC
:101C00004D46099B9A4614E03033DAB2731C99466C
:101C10000EAB9A555246230028003900FFF7B2FA5E
:101C2000BC4226D819D04B461F2B1CD84E46050067
:101C30000F005246230028003900FFF7A3FAD3B261
:101C4000092BE1D94246920605D54122D218D2B2DB
:101C50000A3AD2B2DAE76122F8E7AA45E3D94E465A
:101C60000D9B9A4608E04E460D9B9A4604E00026DE
:101C700002E04E460D9B9A4643460693279B0593EA
:101C8000269B0493099B03935B46029301960EAB3C
:101C9000009353460C9A0B990A98FFF79AFE17B0D7
:101CA000F0BCBB46B246A946A046F0BDF0B5DE4644
:101CB00057464E464546E0B591B0804689460C925F
:101CC0009A461A9C1B9D22002B0020002900FFF73A
:101CD000D4FC002800D0ECE001225242D44B20007A
:101CE0002900FFF7C5FC002800D0E2E001225242A3
:101CF000D04B20002900FFF7A5FC002800D0D8E039
:101D00000022002320002900FFF79CFC002800D0BF
:101D1000E4E0069407958023DB001E9A1A400D929A
:101D20001E9A1A4201D106231C93069807990200B5
:101D30000B000892099303000A00024300D1D9E086
:101D4000080D4005400DBC4EB44660440A03120B1A
:101D50001E00BA4B13431F00FFF7A0FCB84AB94B53
:101D6000FFF731FCB84AB94BFFF70EFC0890099118
:101D70000022B74B30003900FFF701FCB54AB64BE3
:101D8000FFF721FC02000B0008980999FFF7FCFB04
:101D9000FFF79CFC8346FFF781FC06000F00AF4A6B
:101DA000AF4BFFF710FC0022AE4BFFF7EDFBFFF748
:101DB0008DFC0890AC4AAD4B30003900FFF703FCB6
:101DC00006000F000898FFF769FCA94AA94BFFF726
:101DD000FAFB02000B0030003900FFF7D0FB0600D1
:101DE0000F0002000B00FFF7EEFB0A900B91089B1F
:101DF000A14A9446634400210022089109921B05E0
:101E000009930023089332003B0030003900FFF7AC
:101E1000BBFB0E900F9132003B0000208021C905D2
:101E2000FFF7ADFB06000F000022944B0A980B99B8
:101E3000FFF7AFFB0022924BFFF7A6FB02000B005F
:101E40000A980B99FFF7A5FB00228E4BFFF79CFB2E
:101E500002000B000A980B99FFF79BFB02000B0096
:101E600030003900FFF790FB02000B000E980F992D
:101E7000FFF78FFB0022714BFFF786FB089A099B47
:101E8000FFF7A1FB06000F0008960997069A079B2B
:101E9000FFF7EEFB00282FD001235B429C46E34472
:101EA0000022774B30003900FFF773FB089009914F
:101EB00022E01E9B04931D9B03931C9B02930094A2
:101EC000019553460C9A4946404600F0FFF811B080
:101ED000F0BCBB46B246A946A046F0BD0021002298
:101EE00006910792069480231B069C46AC446346E9
:101EF000079310E700239B465B466333C62B20D82D
:101F000004261E9B1B0528D5089A099B190011431E
:101F10000FD05D4A5D4B06980799FFF7A1FB00289B
:101F20007AD000225A4B06980799FFF78BFB0028BE
:101F300072D01C9B5B4506DD5A469B1A013B1C93E5
:101F400003E00526DDE700231C938023DB001E9AB7
:101F50001A431E92002600239B461D9B9E4265D27B
:101F60009F1B02231E9A1A400A921E9A134202D005
:101F7000002E00D000275B46002B07D0089A099B53
:101F800006980799FFF705FB0690079100220023AA
:101F900020002900FFF756FB002800D07CE03D4BD5
:101FA0001E9A1340049303971C9B0293069B079C65
:101FB0000093019453460C9A4946404600F086F837
:101FC000002E00D183E71E9B9B0671D54525441C3E
:101FD0005346020049462800C0475A46D317D21834
:101FE0005A4005230593013E0496002303930A33C8
:101FF00002935B46DB0F0193009253462200494651
:102000004046FFF76EFD0A9B002B00D15FE7020000
:1020100047460C9E1D9D53E01C9B002B9DD00D9BA5
:10202000002B9AD01C9B013B1C9396E7002798E756
:10203000FFFFEF7FFFFFEFFF01FCFFFF0000F03F1E
:10204000FB799F501344D33FB3C8608B288AC63FA7
:102050000000F83F61436F63A787D23F71A37909FE
:102060004F930A400000E03F1655B5BBB16B0240EC
:10207000EF39FAFE422EE63FFF03000000002C403D
:1020800000002440000018402D431CEBE2361A3FAC
:1020900080842E41FFF7FFFF069C079D2200290048
:1020A00080200006844661440B000692079376E781
:1020B00065258CE7541C534649462020B84722002A
:1020C000931BAB42F6D3100001E7C046F0B5DE46E5
:1020D00057464E464546E0B595B006900791934663
:1020E0009946209F1E9A1F9B10001900FFF7C5FA02
:1020F000002831D101225242BF4B1E981F99FFF791
:10210000A1FA002837D101225242BC4B1E981F99D8
:10211000FFF7AEFA00283DD10022B94B1E981F9957
:10212000FFF7A6FA002850D10022B64B1E981F993F
:10213000FFF788FA002848D1002200231E981F9933
:10214000FFF780FA002850D100239846229B5B05B8
:1021500000D4B6E0002458E0229B0393219B029315
:1021600003230193A84B00934B465A4607990698C0
:10217000FFF7D8FB0EE1229B0393219B02930423DC
:102180000193A24B00934B465A4607990698FFF7D6
:10219000C9FBFFE00423229A1A4022990B4210D077
:1021A0009B4B002A0FD0042222990391219902917E
:1021B000019200934B465A4607990698FFF7B2FBE7
:1021C000E8E0944BEDE70322EEE7229B0493219B8A
:1021D000039302971E9B1F9C009301944B465A4603
:1021E00007990698FFF762FDD4E01E9A1F9B002016
:1021F0000021FFF7C4F91E901F9101239846A5E71F
:102200000CAB30221A55013F01341F2C01D8092F85
:10221000F6D81E981F99FFF759FA0500FFF73EFA06
:1022200002000B001E981F99FFF7A9F97A4BFA00DC
:102230009B181A685B680A920B93FFF7C4F9089021
:102240000991FFF767FA0600FFF724FA02000B0076
:1022500008980999FFF793F90890099100226F4BAC
:10226000FFF706FA00282ED001363000FFF712FAE9
:1022700002000B000A980B99FFF7EAF9002801D039
:1022800001350026002F2CD12800FFF707FA0200A5
:102290000B001E981F99FFF772F906000F0000222D
:1022A0005E4BFFF7CFF9002846D100225B4B300090
:1022B0003900FFF7DDF900283ED1EB073CD50135A9
:1022C0003AE0062746E70022544B08980999FFF7A1
:1022D000B9F90028D6D1002E01D0F307D2D50136A6
:1022E000D0E7AA461F2C11D8013F0A213000FEF783
:1022F0000BFF651C30310CAB19550A213000FEF77D
:1023000003FF092E0ED906002C00EBE755461F2CC3
:102310000CD87B1E002F09D00CAA302111551F00AC
:102320000134F4E72B0055461C00F0E71F2C03D8BE
:102330000CAB2E221A5501341F2C10D80A2128006C
:10234000FEF7BAFE661C30310CAB19550A21280085
:10235000FEF7B2FE051E01D03400EDE73400032382
:10236000229A1340012B1CD01F2C06D84346002B69
:1023700032D00CAB2D221A550134229B0393219BA2
:10238000029301940CAB00934B465A46079906986A
:10239000FFF7C8FA15B0F0BCBB46B246A946A04646
:1023A000F0BD219B002B13D04346002B02D10C33F0
:1023B00013420FD0219B013B2193190003E00CAB8A
:1023C00030221A5501348C42CED21F2CF7D9CBE7DC
:1023D0002199F8E72199F6E7229B5B0704D50CAB1E
:1023E0002B221A550134C8E7229B1B07C5D50CAB1D
:1023F00020221A550134C0E7FFFFEFFFFFFFEF7FF8
:1024000065CDCD4165CDCDC174330010783300105A
:102410006833001070330010103800100000E03FE7
:10242000F0B5DE4657464E464546E0B593B0824687
:10243000884693461193002900D10DE300255646A6
:10244000119B1878002800D109E3252809D06C1CBD
:102450005B462A004146B047119B0133119325008A
:10246000EEE701331193002720E001231F430132DF
:102470001192012418E002231F430132119201241A
:1024800012E004231F430132119201240CE00823BF
:102490001F4301321192012406E010231F43013231
:1024A0001192012400E00024002C09D0119A137825
:1024B000203BD9B21029F6D88B00C849CB589F468B
:1024C000119B1A781300303BDBB2092B10D92A2A52
:1024D00013D00B94119B1A782E2A1ED0119A1378C0
:1024E000683BD9B2122959D88B00BD49CB589F46B9
:1024F00011A8FFF705FA0B90ECE71C9B1A1D1C9224
:102500001B68002B04DB0B93119B01331193E1E754
:10251000022217435B420B93F6E78022D200174357
:102520005A1C11925A781300303BDBB2092B0BD99D
:102530002A2AD3D11C9B1A1D1C921C68002C08DB74
:10254000119B01331193C9E711A8FFF7D9F90400D2
:10255000C4E70024F4E780235B003B43511C119146
:1025600051786C2901D01F0018E0C0239B001F4345
:102570000232119212E080233B43511C1191517899
:10258000682901D01F0009E0C0231F4302321192C5
:1025900004E080235B001F4301321192119B1878E5
:1025A000672818D8252800D24CE20300253BDAB270
:1025B000422A00D946E293008A4AD3589F46802394
:1025C0009B001F4301321192E8E780235B001F4309
:1025D00001321192E2E7782800D933E2692800D26B
:1025E00030E20200693AD2B2012393407E4A13429C
:1025F00011D11A0600D500E25B0500D422E21C9B33
:102600001A1D1C921B689A46002C00D0B2E10122D0
:10261000524253468EE16F280ED006D858283DD03E
:10262000622804D102239C4608E0782839D0102380
:102630009F43063B9C4601E008239C46582833D024
:10264000692803D0642801D00C2297437A0501D56C
:102650000122974369282AD0642828D0BA0500D5DA
:102660009FE0FA0500D5C1E07A0600D4D3E01C9AB9
:10267000111D1C911168FF220A4005970B9B0493C2
:102680000394634602930023019300925B462A0061
:1026900041463000FFF725FA050027E010239C464D
:1026A000CCE710239C46C9E720221743C8E7BA05A8
:1026B00020D4FA0550D47A0666D51C9A111D1C91B7
:1026C0001168FF220A40D0171118414005970B9B53
:1026D0000493039463460293D20F019200915B46E8
:1026E0002A0041463000FFF7FCF90500119B013339
:1026F0001193A5E61C9A073207218A43110008317D
:102700001C91116853689946DB170C930D930C9A32
:102710000D9B100048400E904A4653400F930E9870
:102720000F990C9A0D9B801A99410E900F91089762
:102730000B9B0793069463460493002305934B4633
:10274000DA0F0292009001915B462A004146300068
:10275000FFF725FA0500C9E71C9A111D1C911268A4
:10276000D0171118414005970B9B049303946346BF
:102770000293D20F019200915B462A00414630003D
:10278000FFF7AFF90500B1E73A0605D51C9A111D10
:102790001C910023D25E96E71C9A111D1C911268B1
:1027A00091E71C9A073207218A43110008311C91D6
:1027B00008970B9B079306946346049300230593A5
:1027C000029353681268009201935B462A004146C7
:1027D0003000FFF7E4F9050088E7C04670360010C6
:1027E000B436001000370010419000001C9A111DF3
:1027F0001C9105970B9B049303946346029300235B
:102800000193136800935B462A0041463000FFF7AE
:1028100068F905006AE73A0606D51C9A111D1C9155
:1028200012681204120C28E71C9A111D1C911268E0
:1028300023E7462819D01C9B0733072293431A002D
:1028400008321C9204970B9A039202941A685B68F0
:10285000009201935B462A0041463000FFF736FCA8
:102860000500119B01331193EAE520231F43E2E7A2
:10287000672801D0472802D180231B011F43452828
:1028800001D0472801D120231F431C9B0733072277
:1028900093431A0008321C9204970B9A03920294F5
:1028A0001A685B68009201935B462A00414630003B
:1028B000FFF7FCF90500119B01331193C0E50223DA
:1028C0001A003A4091463B421DD001241C9B1A1D20
:1028D0001C926F1C18785B462A004146B0474B4655
:1028E000002B14D1119B013311933D00A8E5571C17
:1028F0005B4641462020B04723003A005C1C9D42C5
:10290000F5D81500E2E701232A000B9DF6E73A000F
:10291000B1460B9E06E0571C5B4641462020C84747
:102920002C003A00651CA642F5D817004E46D9E7A0
:1029300001330A001978002902D0511E002AF7D16C
:1029400052469B1A8022D200390011408946174214
:1029500002D0A34200D92300022211003940109175
:102960003A4209D02A00250057469A4633004E467F
:10297000994621E022004CE62A004546A04606E0A2
:10298000541C5B4629002020B0473B0022005F1CFE
:102990000B999942F4D84446A8463B002500574677
:1029A0009A4633004E46994606E01D000137541CF6
:1029B0005B464146C84722003878002804D0002EE4
:1029C000F4D06B1E002DF0D1150053464E46109AE0
:1029D000002A03D1119B0133119331E50B9F2A008B
:1029E00006E0551C5B4641462020B04723002A00E4
:1029F0005C1C9F42F5D81500ECE721233B431C9A51
:102A0000111D1C9112680593082304930394083345
:102A100002930023019300925B462A004146300056
:102A2000FFF75FF80500119B0133119308E56C1C5B
:102A30005B462A0041462520B047119B0133119384
:102A40002500FDE46C1C5B462A004146B047119B03
:102A5000013311932500F3E40A4B9A46EEE4B246A3
:102A60005D450DD35B465A1E5B4641460020D0476C
:102A7000280013B0F0BCBB46B246A946A046F0BD44
:102A80002A00F1E7F118001000B585B0029003911B
:102A900001210448009313004A4202A9FFF7C0FC39
:102AA00005B000BDF318001000BEFDE710B5FFF73C
:102AB000FBFF000030B583B00D001900002A0BD0D9
:102AC000074B084C019200932B000200200000F0FD
:102AD00045F90120FFF7E8FF034B1A00F1E7C04674
:102AE00080330010903300108C33001010B5EFF3DA
:102AF0000583002B00D000BEFEF704FA034C01E072
:102B000008CC9847024B9C42FAD310BDB42E00105B
:102B1000BC2E001010B50300080011001B68984778
:102B200010BD0000F8B507000D001600437D002B16
:102B300002D0002400200CE0036811002800984710
:102B40002DE03B7D10E03B68154802219847601C52
:102B50000134B44214DA002CF3DD2B19013B1B784D
:102B60000D3B5A425341DBB22A5D0A2AF0D1002BB9
:102B7000EED1A042E7DA3B68211A28189847E2E72D
:102B8000B04203DA3B68311A28189847002E06DD58
:102B9000AD19013D2B780D3B5A4253413B75F8BDB1
:102BA0006038001070B505000368002B16D00C4B80
:102BB0001C6805E0290004C92000FFF7B3FF246961
:102BC000002C09D02368002BF9D0064B1B68002B82
:102BD000F0D0A342F3D1EDE700232B6070BDC046D7
:102BE000740600207806002070B505000C000B6804
:102BF000802B05D023685A1C2260E418257170BD13
:102C00000800FFF7CFFFF5E710B5FEF705F8074A14
:102C1000002312184B41002B03DB054800F024F978
:102C200010BD01225242034BF7E7C04640420F005D
:102C3000C0030020FFFFFF7F10B5024800F0FCF842
:102C400010BDC046C0030020F0B5CE46474680B553
:102C500083B006000D0090461C00FFF7D5FF8146AB
:102C60006B1C05D0002C08D0184F194B1C6807E0CE
:102C7000300000F0A7F80500F4E7164FF5E72469E7
:102C8000002C17D02368002BF9D0134B1B68002BA6
:102C900001D0A342F3D12A0031002000B8474346B7
:102CA000002BECD06B46D91D0A230B7001222000AB
:102CB000B847E4E74B46002B05D1280003B0C0BC61
:102CC000B946B046F0BDFFF7B7FFF6E7252B001079
:102CD00074060020152B00107806002010B5064B56
:102CE0001C6801E098472469002C03D06368002B1E
:102CF000F8D1F8E710BDC0467406002070B5050095
:102D000000F060F804000123012201002800FFF711
:102D10009BFFFFF7E3FF200070BD000070B5A2B07D
:102D200004000E00FFF770FF0500002301930A481E
:102D30003300220001A9FFF7A7FE040001A8FFF756
:102D400031FFFFF7CBFF002D02D1200022B070BD74
:102D5000FFF772FFF9E7C046E92B00100FB400B58A
:102D600083B004A901C90191FFF7D8FF03B008BCE3
:102D700004B0184710B5024800F004F810BDC04672
:102D8000A406002030B589B0040004AD0D22002156
:102D90002800FEF7A1FD0D2200216846FEF79CFDEC
:102DA0004B232B700D226946280000F03DF80023CC
:102DB00004E05A1D69468A5CE2540133072BF8DDB2
:102DC00009B030BD10B583070AD00300032102E02B
:102DD00001330B4205D01A78002AF9D1181A10BD18
:102DE000030019680C4A0D4C8A188A4322420FD1FD
:102DF0005968094A04338A188A43224208D159681B
:102E0000054A04338A188A432242F1D000E0013394
:102E10001A78002AFBD1E1E7FFFEFEFE8080808069
:102E2000F8B5C0460000000001B40248844601BC69
:102E3000604700BF7D02002001B40248844601BC07
:102E4000604700BFCD01002001B40248844601BCA8
:102E5000604700BF5503002001B40248844601BC0E
:102E6000604700BF5503002001B40248844601BCFE
:102E7000604700BF99010020150F0010410F00109E
:102E8000A9100010C91800103117001041180010C7
:102E9000DD0F00105D0F00107D0F0010910F00106E
:102EA000CD040010990F0010BD0B0010010F001091
:0C2EB000D5030010B1020010752D0010B9
:102EC0000A2A2A2A2050414E4943202A2A2A0A0047
:102ED0000A00000030783163203D3D20282A696EC9
:102EE0007374293E3E313175000000002F686F6D0C
:102EF000652F656D6572736F6E2F2E7069636F2D10
:102F000073646B2F73646B2F322E312E302F7372DC
:102F1000632F7270325F636F6D6D6F6E2F686172B9
:102F200064776172655F6972712F6972712E6300D7
:102F300063757272656E74203D3D205F5F756E68CB
:102F4000616E646C65645F757365725F6972712030
:102F50007C7C2063757272656E74203D3D206861D3
:102F60006E646C657200000031203D3D202875695B
:102F70006E747074725F74296C2D3E7370696E5F2D
:102F80006C6F636B000000002F686F6D652F656DBF
:102F90006572736F6E2F2E7069636F2D73646B2F64
:102FA00073646B2F322E312E302F7372632F636F49
:102FB0006D6D6F6E2F7069636F5F73796E632F6DC8
:102FC000757465782E630000746F74616C00000086
:102FD0006D74782D3E636F72652E7370696E5F6CD1
:102FE0006F636B006C6F636B5F69735F6F776E65A8
:102FF000725F69645F76616C6964286D74782D3ED8
:103000006F776E65722900006D74782D3E656E7461
:1030100065725F636F756E7400000000706F6F6C97
:103020002D3E74696D65725F616C61726D5F6E7566
:103030006D203D3D2074696D65725F616C61726DDC
:103040005F6E756D000000002F686F6D652F656DF8
:103050006572736F6E2F2E7069636F2D73646B2FA3
:1030600073646B2F322E312E302F7372632F636F88
:103070006D6D6F6E2F7069636F5F74696D652F740E
:10308000696D652E6300000064656661756C745F30
:10309000616C61726D5F706F6F6C5F696E6974698E
:1030A000616C697A656428290000000048617264D7
:1030B0007761726520616C61726D20256420616C9E
:1030C000726561647920636C61696D6564000000FC
:1030D00076636F5F66726571203E3D205049434FB5
:1030E0005F504C4C5F56434F5F4D494E5F465245D3
:1030F000515F485A2026262076636F5F667265719D
:10310000203C3D205049434F5F504C4C5F56434F4D
:103110005F4D41585F465245515F485A00000000DC
:103120002F686F6D652F656D6572736F6E2F2E70D2
:1031300069636F2D73646B2F73646B2F322E312E86
:10314000302F7372632F7270325F636F6D6D6F6EAD
:103150002F68617264776172655F706C6C2F706C40
:103160006C2E63006662646976203E3D2031362015
:103170002626206662646976203C3D20333230008A
:1031800028706F73745F64697631203E3D20312072
:10319000262620706F73745F64697631203C3D2071
:1031A00037292026262028706F73745F6469763271
:1031B000203E3D203120262620706F73745F6469A5
:1031C0007632203C3D203729000000007265665FA2
:1031D00066726571203C3D202876636F5F6672657C
:1031E00071202F20313629006D697373696E672055
:1031F000646F75626C652066756E6374696F6E00CE
:103200002A282875696E74385F74202A292828288E
:10321000766F6964202A29726F6D5F7461626C65D4
:103220005F666C6F6174292D322929202A20342091
:103230003E3D2053465F5441424C455F56325F53FA
:10324000495A45002F686F6D652F656D6572736F04
:103250006E2F2E7069636F2D73646B2F73646B2FE9
:10326000322E312E302F7372632F7270325F636F84
:103270006D6D6F6E2F7069636F5F646F75626C65E3
:103280002F646F75626C655F696E69745F726F6DD4
:103290005F7270323034302E630000002A282875A7
:1032A000696E74385F74202A29726F6D5F74616271
:1032B0006C652D3229202A2034203E3D2053465F64
:1032C0005441424C455F56325F53495A4500000015
:1032D0002F686F6D652F656D6572736F6E2F2E7021
:1032E00069636F2D73646B2F73646B2F322E312ED5
:1032F000302F7372632F7270325F636F6D6D6F6EFC
:103300002F7069636F5F666C6F61742F666C6F619D
:10331000745F696E69745F726F6D5F7270323034A2
:10332000302E63004465627567000000626F6F7441
:10333000325F77323571303830000000302E310086
:10334000322E312E300000007069636F5F7700000D
:10335000553443344F31325400000000466562203A
:103360002032203230323500666E692B00000000BA
:10337000666E69006E616E00666E692D0000000069
:103380002C2066756E6374696F6E3A200000000031
:10339000617373657274696F6E20222573222066D3
:1033A00061696C65643A2066696C65202225732228
:1033B0002C206C696E65202564257325730A000036
:1033C000666C6173685F6F666673202B20636F7530
:1033D0006E74203C3D205049434F5F464C4153485A
:1033E0005F53495A455F4259544553002F686F6DEA
:1033F000652F656D6572736F6E2F2E7069636F2D0B
:1034000073646B2F73646B2F322E312E302F7372D7
:10341000632F7270325F636F6D6D6F6E2F686172B4
:1034200064776172655F666C6173682F666C617347
:10343000682E6300636F6E6E6563745F696E74659A
:10344000726E616C5F666C6173685F66756E632037
:10345000262620666C6173685F657869745F786999
:10346000705F66756E6320262620666C6173685FE8
:1034700072616E67655F65726173655F66756E63C5
:1034800020262620666C6173685F666C7573685FC2
:1034900063616368655F66756E630000636F6E6E7F
:1034A0006563745F696E7465726E616C5F666C6192
:1034B00073685F66756E6320262620666C6173688C
:1034C0005F657869745F7869705F66756E632026E2
:1034D0002620666C6173685F72616E67655F7072EB
:1034E0006F6772616D5F66756E6320262620666C5D
:1034F0006173685F666C7573685F63616368655F5D
:1035000066756E6300000000636F6E6E6563745FC6
:10351000696E7465726E616C5F666C6173685F661C
:10352000756E6320262620666C6173685F65786916
:10353000745F7869705F66756E6320262620666CFE
:103540006173685F666C7573685F63616368655F0C
:1035500066756E63000000006972715F7365745F69
:103560006578636C75736976655F68616E646C65B8
:10357000720000006D757465785F6578697400008D
:103580006D757465785F656E7465725F626C6F638C
:103590006B5F756E74696C0072756E74696D655FD2
:1035A000696E69745F6D757465780000616C617235
:1035B0006D5F706F6F6C5F6765745F646566617582
:1035C0006C740000616C61726D5F706F6F6C5F692D
:1035D00072715F68616E646C65720000706C6C5F24
:1035E000696E6974000000005F5F61656162695F18
:1035F000646F75626C655F696E6974005F5F6165B9
:103600006162695F666C6F61745F696E6974000006
:1036100006005250D3F07542243300100600525079
:10362000E182887F2C330010060052503ABCA91169
:103630003C33001006005250ABB3605340330010CF
:1036400006005250BBFF3CB64833001006005250F3
:10365000861C030250330010060052505422A29DD3
:103660005C33001005005250DE65F4689C3B00108E
:103670008E240010A6240010A62400109A24001006
:10368000A6240010A6240010A6240010A6240010D2
:10369000A6240010A6240010A624001082240010E6
:1036A000A624001076240010A6240010A6240010E2
:1036B0006A240010762500109C250010BE250010FD
:1036C0009C250010562500109C2500109C250010FC
:1036D0009C2500109C2500109C2500109C250010A6
:1036E0009C250010922500109C2500109C250010A0
:1036F0009C2500109C2500109C250010CA25001058
:103700002E2A0010442A0010442A0010442A0010D7
:10371000442A0010442A0010442A0010442A0010B1
:10372000442A0010442A0010442A0010442A0010A1
:10373000442A0010442A0010442A0010442A001091
:10374000442A0010442A0010442A0010442A001081
:10375000442A0010442A0010442A0010442A001071
:10376000442A0010442A0010442A0010442A001061
:10377000442A0010442A0010442A0010442A001051
:10378000702800103228001070280010442A001001
:10379000442A0010442A0010442A0010442A001031
:1037A000442A0010442A0010442A0010442A001021
:1037B000442A0010442A0010442A0010442A001011
:1037C000442A0010442A0010442A00101626001033
:1037D000442A0010442A0010442A0010442A0010F1
:1037E000442A0010442A0010442A0010442A0010E1
:1037F000442A001016260010BE28001016260010BD
:1038000070280010322800107028001000000000FE
:10381000000000000000F03F000000000000244015
:1038200000000000000059400000000000408F40F0
:10383000000000000088C34000000000006AF8405B
:103840000000000080842E4100000000D01263417F
:103850000000000084D797410000000065CDCD41F5
:103860000D0A0000666C6173685F646F5F636D646E
:043870000000000054
:10387400103600101C3600102836001034360010A4
:10388400403600104C3600105836001064360010D4
:1038940010B503000468EFF3108272B620680028A4
:1038A400FCD0BFF35F8F0420185600280BDB0029DF
:1038B40010D0086000201B68BFF35F8F00211960DF
:1038C40082F3108810BDD0210906097849B2197114
:1038D4000120F0E70020EEE7F0B5D6464F46464615
:1038E400C0B50500904699460368002B20D0D0232C
:1038F4001B061B785BB29A462F68EFF3108472B6EE
:103904003E68002EFCD0BFF35F8F0423EB56002BE0
:1039140014DB2B68BFF35F8F00221A6084F31088D6
:103924004046494600F008F90028E5D000200FE0A1
:103934000A4B0B4A0B48A62100F0F6F853462B71AC
:103944002B68BFF35F8F00221A6084F31088012074
:10395400E0BCBA46B146A846F0BDC046D02F001020
:1039640080350010882F001070B582B00600150055
:103974001C0001A9FFF78CFF002807D1019B5BB253
:10398400D0221206127852B2934201D102B070BD15
:103994002A0023003000FFF79FFFF7E710B5016806
:1039A400EFF3108372B60A68002AFCD0BFF35F8F6E
:1039B40004228256002A0ADBFF2202710268BFF346
:1039C4005F8F0021116083F3108840BF10BD034B4B
:1039D400034A0448D52100F0A7F8C046E42F00109C
:1039E40074350010882F0010094B1B78002B08D069
:1039F4000CE09A0080214905511808680549505087
:103A040001333F2BF5DD024B01221A707047C0468B
:103A1400B40800204805002010B5014B984710BD9C
:103A24004905002000280AD003231B02054A126816
:103A34005340C02292001340034A1360704702238C
:103A4400F3E7C0460C8001400C900140F0B5D64627
:103A54004F464646C0B507000E00150018239A4687
:103A64001B8814229046108828499847814653465B
:103A74001B884246108826499847040053461B88F1
:103A8400424610882349984780464B46002B0CD069
:103A9400002C0AD0002808D0FFF7A6FFC847A0478B
:103AA4000020FFF7BFFF2A000FE01B4B1B4A1C48F6
:103AB400D12100F039F8002B07D0002A05D0C0230B
:103AC4005B051B6E3370013A01362B00134312D091
:103AD400C0235B059C6A08232340A407EBD5002D73
:103AE400E9D0511B0D29E6D83878C021490508666C
:103AF400013D0137DFE70120FFF794FFC047FFF7DF
:103B04008BFFE0BCBA46B146A846F0BD494600006A
:103B14004558000046430000083500106438001082
:103B2400EC3300107047C04601B40248844601BC1F
:103B3400604700BFB52A001001B40248844601BCA6
:103B4400604700BFB10A0010100000000000000030
:103B54000000000000000000000000000000000061
:103B6400C803002000000000000000000000000066
:103B7400503300004C330000543300005233000033
:103B84004D5300004D430000533400004334000003
:083B9400000000000000000029
:04000005100001E9FD
:00000001FF
